:100000000C946B020C949C020C949C020C949C0229
:100010000C949C020C949C020C949C020C949C02E8
:100020000C949C020C949C020C949C020C949C02D8
:100030000C949C020C949C020C949C020C949C02C8
:100040000C949C020C949C020C949C020C949C02B8
:100050000C949C020C949C020C949C020C94970FA0
:100060000C949C020C940B100C94E10F0C949C02C9
:100070000C949C020C949C020C949C020C949C0288
:100080000C949C020C949C020C949C020C949C0278
:100090000C949C020C949C020C949C020C949C0268
:1000A0000C949C020C949C020C949C020C949C0258
:1000B0000C949C020C949C020C949C020C949C0248
:1000C0000C949C020C949C020C949C020C949C0238
:1000D0000C949C020C949C020C949C020C949C0228
:1000E0000C949C020C94C5050C94980D0C94FC0A7D
:1000F0000C94F6050C9402250C9469030C9461038E
:100100000C9457030C94D4050C9441100C947B066A
:100110000C9440030C9438030C941E0F0C945B0356
:100120000C9473030C942E060C9434030C94430328
:100130000C9449030C946E030C9453030C944D03DC
:100140000C946F030C94F70A0C94E7090C94D308F1
:100150000C94DC090C94CF080C94E8050C9465030E
:100160000C9498050C943C030C942E03554E4B4E66
:100170004F574E20434F4D4D414E4400494E505530
:10018000542C393939392C44554D4D59415849531E
:100190002C415849532C4D41535445524C455645DA
:1001A000522C55492E484944453D312C55495F5400
:1001B0005950453D3939004144442C31332C56497E
:1001C000525455414C5F504F5745522C55382C5284
:1001D000572C5669727475616C20506F7765722C5C
:1001E0004F56455248454144207669727475616C9A
:1001F00020706F7765722030206F7220312C50454F
:1002000052534953543D31004144442C31312C4424
:100210004953504C41595F4252492C55382C525742
:100220002C446973706C61797320427269676874D9
:100230006E6573732C566F6C746D65746572732084
:10024000646967697473206272696768746E657344
:10025000732066726F6D203020746F2031352C5002
:100260004552534953543D3100504F4E470053546B
:100270004154455343414E00535441544553434127
:100280004E00414C4C4F574C4F43414C3D31005078
:1002900049443D434654413332584F5648434F4DED
:1002A000504143545632005649443D314C3250007F
:1002B000415554484F523D333630623831326566CD
:1002C0003130643333653534353765653762343101
:1002D0003238343533366600434654204133325881
:1002E000204F564820434F4D504143542056320032
:1002F0007B36366464303139372D306463322D34C7
:100300003335322D386165352D36383764653663BF
:1003100033306566347D00535041440041545441AC
:100320004348494E472043414C4C4241434B5321A3
:100330000000002100240027002A002D0030003397
:100340000001010000040107010A0100002200254C
:100350000028002B002E00310034000201000005AF
:100360000108010B01000020002300260029002CB9
:10037000002F003200000100000301060109010501
:10038000050505070508080808020202020A0A080E
:100390000804040404010101010101010103030334
:1003A0000303030303040707070C0C0C0C0C0C0CD1
:1003B0000C0202020206060606060606060B0B0BD8
:1003C0000B0B0B0B0B010210202008081020401013
:1003D0002040800201020108040201010204081009
:1003E0002040808040201008040201800402018027
:1003F0004020100804020108040201010204081050
:10040000204080010204081020408000000A0B02F6
:10041000090C0D0E08070304010000000000000095
:1004200000000000000000000000000000000000CC
:100430000000000000000012111000000000000089
:1004400000000000000000000000000000000000AC
:10045000007E306D79335B5F707F7B771F0D3D4F82
:100460004700000000000000000000000000000045
:10047000000000000000000000000000008001807B
:10048000007E306D79335B5F707F7B000000000081
:100490000000771F0D3D4F4700370000000E0000A1
:1004A00000670000000000000000000000000000E5
:1004B0000800771F0D3D4F4700370000000E001564
:1004C0001D670000000000000000000000000000A8
:1004D00000004110022511241FBECFEFD1E2DEBF84
:1004E000CDBF00E00CBF12E0A0E0B2E0E6E5F4E52D
:1004F00000E00BBF02C007900D92A43AB107D9F7F4
:100500002EE0A4EAB2E001C01D92A63DB207E1F7D9
:1005100012E0CAE6D2E000E006C021970109802F70
:10052000FE010E94C527C936D10780E00807A9F758
:100530000E943C1F0C94192A0C940000AC011092EC
:100540000F0C90915F0E80915E0EFA01BF01641B4B
:10055000750B20910F0C308130930F0C931304C056
:10056000921302C010920F0C3081311104C0921707
:1005700021F0CB0108953817D1F33196E7CF0F93CF
:100580001F93CF93DF938091530E882309F446C0C5
:10059000D0E0C0E0813029F482E08093530EC3E1C3
:1005A000DCE08091540E882341F1209721F4C09122
:1005B000580ED091590E8E01CE010E949E02892BB9
:1005C00029F42196F80180818111F5CFF80180810D
:1005D000882309F1C8010E949E02F801E80FF91F63
:1005E0008081882311F010823196F093590EE093A8
:1005F000580E1093570E0093560E8091560E909100
:10060000570E892B59F081E08093540EDF91CF91E2
:100610001F910F91089510E000E0EBCF80E0F6CF3E
:100620008150823108F05AC0E82FF0E08827E45E5C
:10063000FC4F8F4F0C94C5273C0340032E0334031B
:1006400038036E03430349034D03530357035B030E
:10065000610365036E0369036F0373038091800078
:100660008F77809380000895809180008F7DF9CFEF
:1006700080918000877FF5CF84B58F7784BD089502
:1006800084B58F7DFBCF8091B0008F778093B000D1
:1006900008958091B0008F7DF9CF809190008F7781
:1006A000809390000895809190008F7DF9CF809184
:1006B0009000877FF5CF8091A0008F778093A00076
:1006C00008958091A0008F7DF9CF8091A000877F51
:1006D000F5CF809120018F7780932001089580913C
:1006E00020018F7DF9CF80912001877FF5CFCF93B7
:1006F000DF93282F30E0F901E55FFB4F8491F9018A
:10070000EB53FC4FD491F901E158FC4FC491CC2339
:10071000A1F081110E941003EC2FF0E0EE0FFF1FFB
:10072000EB59FC4FA591B491EC91ED2381E090E061
:1007300009F480E0DF91CF91089580E090E0FACF56
:100740001F93CF93DF93282F30E0F901E55FFB4F34
:100750008491F901EB53FC4FD491F901E158FC4F1E
:10076000C491CC23A9F0162F81110E941003EC2F05
:10077000F0E0EE0FFF1FE55BFC4FA591B4918FB742
:10078000F894EC91111108C0D095DE23DC938FBF53
:10079000DF91CF911F910895DE2BF8CFCF93DF9398
:1007A00090E0FC01EB53FC4F249181589C4FFC01DD
:1007B00084918823C9F090E0880F991FFC01EF5CB9
:1007C000FC4FA591B491FC01E55BFC4FC591D49120
:1007D00061110DC09FB7F8948C91209582238C9362
:1007E0008881282328839FBFDF91CF9108956230AD
:1007F00051F49FB7F8943C91822F809583238C937A
:10080000E8812E2BEFCF8FB7F894EC912E2B2C9301
:100810008FBFEACF8230910538F0880F991F880F7B
:10082000991F05970197F1F708950F931F93CF93A1
:10083000DF9380917E0390917F0390937D0380935B
:100840007C0360E0809175030E94A00380917B038C
:1008500090E00E940A0461E0809175030E94A00369
:1008600010E000E0D0E0C0E08091790390917A033D
:100870000817190728F5809177030E9477032091C4
:10088000790330917A0321503109201B310B02C0CA
:10089000880F991F2A95E2F7C82BD92B61E0809128
:1008A00078030E94A00380917B0390E00E940A04D9
:1008B00060E0809178030E94A0030F5F1F4FD4CFA8
:1008C000D0937F03C0937E0381E020917C0330911D
:1008D0007D032C173D0709F480E0DF91CF911F9134
:1008E0000F910895CF92DF92EF92FF92CF93DF9313
:1008F00080918B0390918C03A0918D03B0918E0316
:100900008093870390938803A0938903B0938A030D
:1009100060E0809180030E94A0038091860390E0B4
:100920000E940A0461E0809180030E94A003D0E04D
:10093000C0E0C12CD12C7601809184039091850375
:10094000C817D90760F5809182030E947703092EAA
:10095000000CAA0BBB0B209184033091850321501E
:1009600031092C1B3D0B04C0880F991FAA1FBB1F08
:100970002A95D2F7C82AD92AEA2AFB2A61E080916F
:1009800083030E94A0038091860390E00E940A04E2
:1009900060E0809183030E94A0032196CDCFC09296
:1009A0008B03D0928C03E0928D03F0928E0381E052
:1009B00040918703509188036091890370918A0365
:1009C0004C155D056E057F0509F480E0DF91CF9140
:1009D000FF90EF90DF90CF9008953FB7F89480910B
:1009E000FE029091FF02A0910003B091010326B591
:1009F000A89B05C02F3F19F00196A11DB11D3FBF57
:100A0000BA2FA92F982F8827BC01CD01620F711D25
:100A1000811D911D42E0660F771F881F991F4A951F
:100A2000D1F708958F929F92AF92BF92CF92DF92AB
:100A3000EF92FF926B017C010E94ED044B015C017F
:100A4000C114D104E104F104B9F00E94ED04681965
:100A500079098A099B09683E73408105910580F3F5
:100A600021E0C21AD108E108F10888EE880E83E07F
:100A7000981EA11CB11CE4CFFF90EF90DF90CF90A7
:100A8000BF90AF909F908F9008952FB7F89460918A
:100A9000FA027091FB028091FC029091FD022FBF3F
:100AA0000895FC01248135816217730720F4808149
:100AB0009181009729F41092A40284EA92E00895AB
:100AC000860F971F0895DC01ED91FC910190F08154
:100AD000E02D1994EF92FF920F931F93CF93DF9322
:100AE00020910A0C2223E9F08C0160915E0E809126
:100AF0005B0E90915C0E0E946305E0905B0EF0909F
:100B00005C0EE801FE016491662359F0D701ED9176
:100B1000FC910190F081E02DC70119952196892B58
:100B200089F7DF91CF911F910F91FF90EF9008957A
:100B3000AF92BF92CF92DF92EF92FF920F931F93EB
:100B4000CF93DF936C017B018B01040F151FEB0129
:100B50005E01AE18BF08C017D10759F06991D601E0
:100B6000ED91FC910190F081E02DC6011995892B42
:100B700079F7C501DF91CF911F910F91FF90EF9011
:100B8000DF90CF90BF90AF900895FC01538D448DBE
:100B9000252F30E0842F90E0821B930B541710F028
:100BA000CF96089501970895FC01918D828D981735
:100BB00061F0A28DAE0FBF2FB11D5D968C91928D0D
:100BC0009F5F9F73928F90E008958FEF9FEF08953E
:100BD000FC01918D828D981731F0828DE80FF11D07
:100BE000858D90E008958FEF9FEF0895FC01918D22
:100BF000228D892F90E0805C9F4F821B91098F731B
:100C0000992708958DE69BE00E94F60521E0892B47
:100C100009F420E0822F0895FC01A48DA80FB92FBC
:100C2000B11DA35ABF4F2C91848D90E001968F7314
:100C30009927848FA689B7892C93A089B1898C9133
:100C4000837080648C93938D848D981306C0028882
:100C5000F389E02D80818F7D80830895EF92FF924C
:100C60000F931F93CF93DF93EC0181E0888F9B8DCF
:100C70008C8D98131AC0E889F989808185FF15C089
:100C80009FB7F894EE89FF896083E889F9898081AC
:100C90008370806480839FBF81E090E0DF91CF917B
:100CA0001F910F91FF90EF900895F62E0B8D10E09D
:100CB0000F5F1F4F0F731127E02E8C8D8E110CC00C
:100CC0000FB607FCFACFE889F989808185FFF5CF57
:100CD000CE010E940C06F1CFEB8DEC0FFD2FF11D24
:100CE000E35AFF4FF0829FB7F8940B8FEA89FB8994
:100CF00080818062CFCFCF93DF93EC01888D8823F2
:100D0000B9F0AA89BB89E889F9898C9185FD03C06E
:100D1000808186FD0DC00FB607FCF7CF8C9185FF53
:100D2000F2CF808185FFEDCFCE010E940C06E9CF86
:100D3000DF91CF91089580E090E0892B29F00E9407
:100D4000020681110E94000080E090E0892B49F0AA
:100D500080E090E0892B29F00E94000081110E9420
:100D6000000080E090E0892B49F080E090E0892B42
:100D700029F00E94000081110E94000080E090E0B4
:100D8000892B49F080E090E0892B29F00E94000037
:100D900081110C94000008952DE0289FF001299FF7
:100DA000F00D1124E157FC4F8081811109C0818130
:100DB0000E94770321E0892B09F420E0822F089517
:100DC000813099F4218180918B0390918C03A091C3
:100DD0008D03B0918E0304C0B695A795979587951E
:100DE0002A95D2F7282F2170E9CF21E0823031F700
:100DF000218180917E0390917F0302C09695879513
:100E00002A95E2F7EFCF0F931F93CF93DF93082F2D
:100E1000162FD42FC8E06D2F661F6627661F802F00
:100E20000E94A003DD0F61E0812F0E94A00360E01B
:100E3000812F0E94A003C15071F7DF91CF911F91C4
:100E40000F9108950F931F93CF93DF931F921F92DB
:100E5000CDB7DEB769834A83880F991F0091580385
:100E600010915903000F111FE2E0F3E09F0122509F
:100E700033402017310714F41192F8CF2981FC0177
:100E8000EE5FFC4F21838A81808360E0809156036E
:100E90000E94A003101611066CF401501109F8010C
:100EA000EE5FFC4F408160915403809152030E9499
:100EB0000307F0CF61E0809156030F900F90DF9110
:100EC000CF911F910F910C94A00320915803309162
:100ED000590312161306B4F467FD60E2E62F660F9D
:100EE000FF0BEF5AFB4FE4914111E068DC01AE5F6C
:100EF000BC4F5096EC9361E0680F4E2F90E080E07D
:100F00000C9422070895EF92FF921F93CF93DF93E3
:100F1000209158033091590382179307B4F4EC01E0
:100F200023E0880F991F2A95E1F79C012E5E3C4F24
:100F3000790111E0F70111927F0140E0612FCE01AC
:100F40000E9422071F5F1930A9F7DF91CF911F91EF
:100F5000FF90EF900895CF93DF93EC0170E060E095
:100F60008CEC9EE00E94510540E0FC01608185E030
:100F700090E00E94650761E070E08CEC9EE00E94CA
:100F8000510540E0FC01608184E090E00E9465072B
:100F900062E070E08CEC9EE00E94510540E0FC01B4
:100FA000608183E090E00E946507809158039091F2
:100FB0005903181619064CF485E08093140345E094
:100FC00063E090E080E00E94220761E070E086EC40
:100FD0009EE00E94510540E0FC01608181E090E0CC
:100FE0000E94650762E070E086EC9EE00E94510579
:100FF00040E0FC01608190E080E00E946507BE0156
:10100000DD0F880B990B0E94120590E080E0DF91C4
:10101000CF910C948307CF93DF93EC018091580319
:1010200090915903181619064CF4C031D10530F4CB
:101030004C2F6AE090E080E00E942207D0930202E9
:10104000C0930102DF91CF910895CF93DF93D0E059
:10105000C0E04091710350917203609173037091ED
:1010600074030C2E04C076956795579547950A949E
:10107000D2F760916D0380916C030E94030728965C
:10108000C032D10531F761E080916E030E94A00368
:1010900060E080916E030E94A003609171037091E3
:1010A00072038091730390917403DF91CF9108953F
:1010B0000F931F93CF93DF93EC0110E000E04D817D
:1010C0005E816F817885002E04C07695679557956F
:1010D00047950A94D2F7698188810E940307085FC7
:1010E0001F4F0831110559F761E08A810E94A00362
:1010F00060E08A810E94A0036D817E818F81988546
:10110000DF91CF911F910F910895CF93DF931092AC
:1011100071031092720310927303109274030E9471
:101120002508109268031092690310926A031092C6
:101130006B0383E693E00E94580810925F031092BD
:10114000600310926103109262038AE593E00E94AB
:101150005808C5E8D7E08881811104C060E0898122
:101160000E94A0032D968BE0C136D807A1F7DF912E
:10117000CF9108950E94BF02882359F081E08093A7
:10118000540E8093550E8091560E9091570E0C94EC
:101190004A251092550E60E070E0CB0108950E9440
:1011A000BA080C94BA08CF92DF92EF92FF920F9395
:1011B0001F93CF93DF930E94BA086B017C010E94BA
:1011C000BA08AB01BC01E5E8F7E0D0E0C0E08281FD
:1011D0009381092E000CAA0BBB0B8C159D05AE0547
:1011E000BF0509F0DAC08DE08C9FF0018D9FF00DF6
:1011F0001124EB57F84F808181113EC08181452B2E
:10120000462B472BB9F161E00E94A0038DE08C9F33
:10121000F0018D9FF00D1124EB57F84F8081813044
:1012200011F40E9425088DE08C9FF0018D9FF00D38
:101230001124EB57F84F8081823021F483E693E04C
:101240000E9458088DE08C9FF0018D9FF00D1124B5
:10125000EB57F84F8081833009F0A5C08AE593E011
:10126000DF91CF911F910F91FF90EF90DF90CF9082
:101270000C94580860E0C8CF813071F5009171037B
:10128000109172032091730330917403E18181E026
:1012900090E0A0E0B0E004C0880F991FAA1FBB1F18
:1012A000EA95D2F7452B462B472B69F0802B912BE3
:1012B000A22BB32B8093710390937203A0937303BB
:1012C000B0937403A3CF80959095A095B09580239B
:1012D0009123A223B323EECF823071F500916803EE
:1012E0001091690320916A0330916B03E18181E0E1
:1012F00090E0A0E0B0E004C0880F991FAA1FBB1FB8
:10130000EA95D2F7452B462B472B69F0802B912B82
:10131000A22BB32B8093680390936903A0936A0375
:10132000B0936B0373CF80959095A095B095802373
:101330009123A223B323EECF833009F067CF00912E
:101340005F03109160032091610330916203E1819A
:1013500081E090E0A0E0B0E004C0880F991FAA1FD0
:10136000BB1FEA95D2F7452B462B472B69F0802B04
:10137000912BA22BB32B80935F0390936003A093D8
:101380006103B093620342CF80959095A095B0958C
:1013900080239123A223B323EECF21963D96CC3414
:1013A000D10509F014CFDF91CF911F910F91FF90DC
:1013B000EF90DF90CF9008950E94BA0860317105D8
:1013C0008105910518F4CB010C940B0808950C9439
:1013D000BA08FB0101900020E9F73197AF01461BE5
:1013E000570BDC01ED91FC910280F381E02D199403
:1013F00080910A0C8823A1F060915D0E80915B0EB4
:1014000090915C0E0E9463058091120C882341F03C
:101410006BE172E080915B0E90915C0E0E94E90995
:101420001092110C10920A0C80E008958F929F92F6
:10143000AF92BF92EF92FF920F931F93CF93DF93E0
:10144000CDB7DEB7A1970FB6F894DEBF0FBECDBF04
:101450007C01FA01CB0119A2223008F42AE08E01A6
:101460000F5D1F4F822E912CB12CA12CBF01A50125
:1014700094010E94DD26F901CA016A300CF5605D15
:10148000D8016E938D01232B242B252B79F790E027
:1014900080E0109721F0BD01C7010E94E909A196E3
:1014A0000FB6F894DEBF0FBECDBFDF91CF911F9175
:1014B0000F91FF90EF90BF90AF909F908F90089505
:1014C000695CDECFCF92DF92EF92FF920F931F9372
:1014D000CF93DF9377FF1DC06A017B01EC016DE2C2
:1014E0000E9463058C0144275527BA014C195D09F8
:1014F0006E097F092AE0CE010E94160A800F911F13
:10150000DF91CF911F910F91FF90EF90DF90CF90DF
:1015100008952AE0DF91CF911F910F91FF90EF90F6
:10152000DF90CF900C94160ACF93DF9320910A0C92
:101530002223A9F0EC0160915E0E80915B0E9091E8
:101540005C0E0E946305AE01DD0F660B770B809188
:101550005B0E90915C0EDF91CF910C94620ADF914B
:10156000CF910895CF9390910A0C9923A9F0C82F99
:1015700060915E0E80915B0E90915C0E0E946305FF
:101580004C2FCC0F550B660B770B80915B0E909117
:101590005C0ECF910C94620ACF91089590910A0C41
:1015A000911110C091E090930A0C9093110C482F68
:1015B00050E070E060E02AE080915B0E90915C0E5C
:1015C0000C94160A0895CF93DF9390910A0C911111
:1015D0000AC0EB010E94CE0ACE010E946A05DF918B
:1015E000CF910C94F80980E0DF91CF9108956CE6DB
:1015F00071E083E00C94E30ACF92DF92EF92FF92C6
:101600000F931F93CF93DF930E94BF02882309F4A7
:1016100072C081E08093540E8093550EC091560E97
:10162000D091570E6EE172E0CE010E94092A892BFB
:1016300009F066C080E00E94CE0A62E370E080E0BC
:1016400090E00E94120587E193E00E946A0562E340
:1016500070E080E090E00E94120580EF92E00E942E
:101660006A0562E370E080E090E00E94120588ED78
:1016700092E00E946A0562E370E080E090E00E94E0
:10168000120582E090E00E94940A81E090E00E94BE
:10169000940A80EB92E00E946A0562E370E080E0C9
:1016A00090E00E94120587EA92E00E946A0562E3D8
:1016B00070E080E090E00E9412058FE892E00E94C6
:1016C0006A0562E370E080E090E00E94120582E823
:1016D00092E00E946A0562E370E080E090E00E9480
:1016E0001205DF91CF911F910F91FF90EF90DF9046
:1016F000CF900C94F8091092550ED0E0C0E092CF34
:1017000063E272E0CE010E94092A8C01892B09F064
:10171000B0C080E00E94CE0A88E792E00E946A058D
:1017200081E090E00E94940A0E94F8090E947204ED
:101730000E9415048DE0C82EDD24D394C09EE001E4
:10174000C19ED00D1124C157DC4F8A819B819C0121
:10175000205D37402C32314088F5C8010E94CC060C
:1017600081110EC088E00E94CE0A8A819B810E946E
:10177000940A8A850E94B20A0E94F8091C860DC04C
:1017800088E00E94CE0A8A819B810E94940A8B8500
:101790000E94B20A0E94F809DC860F5F1F4F0E34C8
:1017A000110564F280E00E94CE0A8EE692E00E946B
:1017B0006A0582E090E00E94940A93CF9C012C5F1E
:1017C00038402436310508F048C078018FEFE81A18
:1017D000F80AC8010E94CC06CE9C8001CF9C100D57
:1017E0001124811112C088E00E94CE0A8A819B8157
:1017F0000E94940A8A850E94B20A0E94F8091C86F7
:10180000F801E157FC4FD48618C0C7010E94CC06EE
:10181000811115C088E00E94CE0A01571C4FF801C3
:10182000828193810E94940AF80182850E94B20A03
:101830000E94F809F8011486DC868701AECF88E0A3
:101840000E94CE0A8A819B810E94940A8B850E9405
:10185000B20A0E94F809DC86D3CF805699408436BC
:10186000910508F09ACFC8010E94CC06811195CF4E
:1018700079CF6DE272E0CE010E94092A892B59F5D9
:101880000E9445056093C8027093C9028093CA0202
:101890009093CB0280E00E94CE0A89E692E00E94FB
:1018A0006A050E94BA086B017C0180910A0C8823AA
:1018B00009F417CF60915E0E80915B0E90915C0EE3
:1018C0000E946305B701A60180915B0E90915C0EAA
:1018D0000E94620A06CF62E372E0CE010E94092AEA
:1018E000892B71F40E94850890E080E0DF91CF9110
:1018F0001F910F91FF90EF90DF90CF900C94830792
:1019000066E372E0CE010E94092A892BE9F568E0BE
:1019100072E081E00E94E30A62E370E080E090E020
:101920000E94120567EB71E081E00E94E30A62E326
:1019300070E080E090E00E9412056CE771E080E0CA
:101940000E94E30A62E370E080E090E00E941205EA
:1019500080910A0C811118C00E94CE0A80910A0C55
:10196000882309F4BECE60915E0E80915B0E90914B
:101970005C0E0E94630566E372E080915B0E9091BD
:101980005C0E0E94E909ADCEDF91CF911F910F91BE
:10199000FF90EF90DF90CF900895FC0180819181BE
:1019A000009711F00C9484280895EF92FF920F9302
:1019B0001F93CF93DF93EC017B018A01888199818A
:1019C000009729F02A813B812417350788F4B80154
:1019D0006F5F7F4F0E940D29009791F09983888354
:1019E0001B830A832C813D81232B11F4FC0110827F
:1019F0001D830C83B701888199810E94122A0CC033
:101A000088819981009711F00E9484281982188298
:101A10001D821C821B821A82CE01DF91CF911F9101
:101A20000F91FF90EF9008950F931F93CF93DF9343
:101A300000D000D0CDB7DEB78C018BE00E94CE0A7B
:101A40001A8219821C821B821E821D82D8016D910E
:101A50007C9111976115710539F014964D915C9147
:101A6000CE0101960E94D50C80910A0C8823B9F012
:101A700060915E0E80915B0E90915C0E0E946305FA
:101A800080915B0E90915C0E4D815E8169817A81BF
:101A9000DC01ED91FC910280F381E02D1995CE01DE
:101AA00001960E94CD0C0E94F80926960FB6F89474
:101AB000DEBF0FBECDBFDF91CF911F910F91089573
:101AC000EF92FF920F931F93CF93DF93CDB7DEB7C3
:101AD00062970FB6F894DEBF0FBECDBF8C01CB016D
:101AE000F8011182108213821282158214824AE058
:101AF0009E012F5F3F4F7901B9010E947125F701C7
:101B000001900020E9F73197AF014E195F09B70145
:101B1000C8010E94D50C62960FB6F894DEBF0FBEC6
:101B2000CDBFDF91CF911F910F91FF90EF9008955E
:101B30000F931F93CF93DF9300D000D0CDB7DEB7C4
:101B40000E94BF02882391F181E08093540E80931C
:101B5000550E0091560E1091570E6DE372E0C801BC
:101B60000E94092A892B39F581E08093C702609190
:101B7000010270910202CE0101960E94600D8091D7
:101B80000A0C811104C0CE0101960E94140DCE01F1
:101B900001960E94CD0C26960FB6F894DEBF0FBEBC
:101BA000CDBFDF91CF911F910F9108951092550EE7
:101BB00010E000E0D2CF63E472E0C8010E94092A7D
:101BC000892B39F068E472E0C8010E94092A892B48
:101BD00049F41092C7020E94850890E080E00E94BC
:101BE0008307D9CF62E372E0C8010E94092A892BDA
:101BF00091F6EFCFFC0111821082138212821582BE
:101C00001482FB0101900020E9F73197AF01461BD8
:101C1000570B0C94D50CCF93DF93BC01009771F058
:101C2000FC01D0E0C0E0CF014191442339F09E0196
:101C30002F5F3F4F4E3241F0E901F5CFCFEFDFEF9D
:101C4000CE01DF91CF910895620F731FFB010190C8
:101C50000020E9F7AF01461B570B0E94F729F0CF90
:101C6000EF92FF920F931F93CF93DF93EC01FC0150
:101C700001900020E9F731978F01081B190B0E9492
:101C80000B0E01967C010330110538F141E082E032
:101C9000E816F10409F040E0688182E090E00E94DB
:101CA000650741E083E0E816F10409F040E069814E
:101CB00081E090E00E94650741E084E0E816F104CD
:101CC00009F040E06A8190E080E0DF91CF911F91C0
:101CD0000F91FF90EF900C94650740E060E282E086
:101CE00090E002301105A9F40E94650741E082E00E
:101CF000E816F10409F040E0688181E090E00E947C
:101D0000650741E083E0E816F10409F040E06981ED
:101D1000DACF0130110581F40E94650740E060E2EE
:101D200081E090E00E94650741E082E0E816F1045E
:101D300009F040E06881C7CF0E94650740E060E29B
:101D400081E090E00E94650740E060E2BCCFEF9246
:101D5000FF920F931F93CF93DF93EC01FC0101904F
:101D60000020E9F731978F01081B190B0E940B0E19
:101D700001967C010330110538F141E082E0E8165C
:101D8000F10409F040E0688185E090E00E94650779
:101D900041E083E0E816F10409F040E0698184E065
:101DA00090E00E94650741E084E0E816F10409F044
:101DB00040E06A8183E090E0DF91CF911F910F9125
:101DC000FF90EF900C94650740E060E285E090E0C2
:101DD00002301105A9F40E94650741E082E0E8168F
:101DE000F10409F040E0688184E090E00E9465071A
:101DF00041E083E0E816F10409F040E06981DACFC0
:101E00000130110581F40E94650740E060E284E042
:101E100090E00E94650741E082E0E816F10409F0D5
:101E200040E06881C7CF0E94650740E060E284E03F
:101E300090E00E94650740E060E2BCCF8F929F92E5
:101E4000AF92BF92CF92DF92EF92FF92CF93DF9348
:101E50000E94BA084B015C010E94BA080E94BA08AD
:101E60006B017C010E94BF02882301F181E0809315
:101E7000540E8093550EC091560ED091570E84E6A5
:101E800088169104A104B104B1F085E68816910486
:101E9000A104B10499F1DF91CF91FF90EF90DF9011
:101EA000CF90BF90AF909F908F9008951092550E55
:101EB000D0E0C0E0E4CF82E0C816D104E104F10430
:101EC00091F4CE010E94A70EBE0180EE92E0DF9158
:101ED000CF91FF90EF90DF90CF90BF90AF909F9009
:101EE0008F900C94122ACD28CE28CF28A1F68DE110
:101EF00092E00E94A70E6DE172E0E7CF82E0C81683
:101F0000D104E104F10439F4CE010E94300EBE0187
:101F10008CEC92E0DCCFCD28CE28CF2809F0BBCFC7
:101F20008DE192E00E94300E6DE172E0F1CF1F92E0
:101F30000F920FB60F9211242F933F938F939F937D
:101F4000AF93BF938091FA029091FB02A091FC02A3
:101F5000B091FD023091F90223E0230F2D3758F59F
:101F60000196A11DB11D2093F9028093FA0290936E
:101F7000FB02A093FC02B093FD028091FE029091BF
:101F8000FF02A0910003B09101030196A11DB11DB4
:101F90008093FE029093FF02A0930003B09301038D
:101FA000BF91AF919F918F913F912F910F900FBE55
:101FB0000F901F90189526E8230F0296A11DB11DC2
:101FC000D2CF1F920F920FB60F9211240BB60F9221
:101FD0002F933F934F935F936F937F938F939F9331
:101FE000AF93BF93EF93FF938DE69BE00E940C06A7
:101FF000FF91EF91BF91AF919F918F917F916F91E1
:102000005F914F913F912F910F900BBE0F900FBE9C
:102010000F901F9018951F920F920FB60F921124D8
:102020000BB60F922F938F939F93EF93FF93E091B3
:102030007D0BF0917E0B8081E091830BF091840BFE
:1020400082FD1DC090818091860B8F5F8F732091E0
:10205000870B821741F0E091860BF0E0E359F44FD3
:10206000958F8093860BFF91EF919F918F912F9188
:102070000F900BBE0F900FBE0F901F901895808190
:10208000F2CF2F923F924F925F926F927F928F92F8
:102090009F92AF92BF92CF92DF92EF92FF920F93F7
:1020A0001F93CF93DF931092700B10926F0B88EEFB
:1020B00093E0A0E0B0E08093710B9093720BA0933B
:1020C000730BB093740B8DE092E090936E0B809342
:1020D0006D0B85EC90E090937A0B8093790B84ECF8
:1020E00090E090937C0B80937B0B80EC90E090933E
:1020F0007E0B80937D0B81EC90E09093800B80931E
:102100007F0B82EC90E09093820B8093810B86ECA6
:1021100090E09093840B8093830B1092860B109227
:10212000870B1092880B1092890B63E572E08CECA0
:102130009EE00E94FA0D67E572E086EC9EE00E9448
:10214000FA0D1092610E1092600E8DE69BE0909356
:102150005C0E80935B0E1092120C8CE280935E0EEC
:102160008BE380935D0E8FE280935F0E80E480931B
:102170000D0C8FE380930E0C10920C0C1092570EE6
:102180001092560E1092590E1092580E81E08093C4
:10219000540EE2E6FEE086EC9EE0119211928E175C
:1021A0009F07D9F71092110C6BE572E087E69BE070
:1021B0000E94FA0D6CE772E081E69BE00E94FA0D46
:1021C0001092850787E1809386078FE194E09093D2
:1021D0008807809387076DE172E089E897E00E94A5
:1021E000FA0DC1E0C0938F0710929007DFEFD093F4
:1021F00091071092920786E18093930780E294E022
:1022000090939507809394076DE172E086E997E0DB
:102210000E94FA0DC0939C0710929D07D0939E07D1
:1022200010929F0785E18093A00781E294E090934C
:10223000A2078093A1076DE172E083EA97E00E9414
:10224000FA0DC093A9071092AA07D093AB07C093C9
:10225000AC078CE18093AD0782E094E09093AF07E8
:102260008093AE076DE172E080EB97E00E94FA0D7B
:10227000C093B6071092B707D093B807C093B907B9
:102280008BE18093BA078CEF93E09093BC07809327
:10229000BB076DE172E08DEB97E00E94FA0DC093F1
:1022A000C3071092C407D093C507C093C6078AE13D
:1022B0008093C7078DEF93E09093C9078093C80779
:1022C0006DE172E08AEC97E00E94FA0DC093D007AE
:1022D0001092D107D093D207C093D30789E180939E
:1022E000D40780E094E09093D6078093D5076DE102
:1022F00072E087ED97E00E94FA0DC093DD0710921F
:10230000DE07D093DF07C093E00788E18093E10701
:1023100081E094E09093E3078093E2076DE172E03F
:1023200084EE97E00E94FA0DC093EA071092EB0743
:10233000D093EC07C093ED078EE18093EE078EEF0C
:1023400093E09093F0078093EF076DE172E081EFE7
:1023500097E00E94FA0DC093F7071092F807D09308
:10236000F907C093FA078FE18093FB078FEF93E0A3
:102370009093FD078093FC076DE172E08EEF97E08C
:102380000E94FA0DC093040810920508D093060825
:10239000C09307088DE0982E9092080888EF93E08C
:1023A00090930A08809309086DE172E08BE098E051
:1023B0000E94FA0DC093110810921208D0931308CE
:1023C000C09314089CE0E92EE092150889EF93E091
:1023D00090931708809316086DE172E088E198E009
:1023E0000E94FA0DC0931E0810921F08D093200877
:1023F000C09321082AE0C22EC09222088AEF93E0FF
:1024000090932408809323086DE172E085E298E0C0
:102410000E94FA0DC0932B0810922C08D0932D081F
:10242000C0932E083BE0532E50922F088BEF93E081
:1024300090933108809330086DE172E082E398E078
:102440000E94FA0DC093380810923908D0933A08C8
:10245000C0933B0845E0F42EF0923C088BE194E0F9
:1024600090933E0880933D086DE172E08FE398E021
:102470000E94FA0DC093450810924608D093470871
:10248000C093480854E0652E609249088CE194E0BE
:1024900090934B0880934A086DE172E08CE498E0D9
:1024A0000E94FA0DC093520810925308D09354081A
:1024B000C093550803E0009356088DE194E0909393
:1024C0005808809357086DE172E089E598E00E9412
:1024D000FA0DC0935F0810926008D0936108C09312
:1024E000620812E0109363088EE194E0909365080F
:1024F000809364086DE172E086E698E00E94FA0D30
:10250000C0936C0810926D08D0936E08C0936F084A
:102510006EE0B62EB092700883E094E0909372085B
:10252000809371086DE172E083E798E00E94FA0DF4
:10253000C093790810927A08D0937B08C0937C08E6
:102540008FE080937D0884E094E090937F088093EF
:102550007E086DE172E080E898E00E94FA0DC09379
:10256000860810928708D0938808C093890878E07D
:10257000A72EA0928A0885E094E090938C0880931F
:102580008B086DE172E08DE898E00E94FA0DC0932F
:10259000930810929408D0939508C0939608E9E0A8
:1025A000DE2ED092970886E094E09093990880936D
:1025B00098086DE172E08AE998E00E94FA0DC093F4
:1025C000A0081092A108D093A208C093A308F6E037
:1025D0008F2E8092A40887E094E09093A6088093C1
:1025E000A5086DE172E087EA98E00E94FA0DC093B9
:1025F000AD081092AE08D093AF08C093B008A7E022
:102600007A2E7092B10888E094E09093B30880939A
:10261000B2086DE172E084EB98E00E94FA0DC0937D
:10262000BA081092BB08D093BC08C093BD081092A2
:10263000BE0888EE93E09093C0088093BF086DE1D8
:1026400072E081EC98E00E94FA0DC093C7081092E6
:10265000C808D093C908C093CA08C093CB0889EEB4
:1026600093E09093CD088093CC086DE172E08EECFE
:1026700098E00E94FA0DC093D4081092D508D09328
:10268000D6081093D70885E18093D8088AEE93E0A6
:102690009093DA088093D9086DE172E08BED98E0B1
:1026A0000E94FA0DC093E1081092E208D093E3086B
:1026B0001093E40884E18093E5088BEE93E0909317
:1026C000E7088093E6086DE172E088EE98E00E94EA
:1026D000FA0DC093EE081092EF08D093F008109313
:1026E000F108B2E12B2E2092F2088BE094E0909357
:1026F000F4088093F3086DE172E085EF98E00E94A2
:10270000FA0DC093FB081092FC08D093FD081093BB
:10271000FE0883E1382E3092FF088CE094E090931D
:102720000109809300096DE172E082E099E00E9466
:10273000FA0DC093080910920909D0930A09109361
:102740000B0990920C098DE094E090930E09809310
:102750000D096DE172E08FE099E00E94FA0DC093DF
:10276000150910921609D093170910931809E092D1
:1027700019098EE094E090931B0980931A096DE18A
:1027800072E08CE199E00E94FA0DC0932209109248
:102790002309D093240910932509F09226098FE08C
:1027A00094E090932809809327096DE172E089E213
:1027B00099E00E94FA0DC0932F0910923009D0932E
:1027C0003109109332096092330980E194E09093CB
:1027D0003509809334096DE172E086E399E00E9447
:1027E000FA0DC0933C0910923D09D0933E09109315
:1027F0003F098092400981E194E0909342098093DF
:1028000041096DE172E083E499E00E94FA0DC09302
:10281000490910924A09D0934B0910934C097092C0
:102820004D0982E194E090934F0980934E096DE148
:1028300072E080E599E00E94FA0DC093560910926B
:102840005709D09358091093590910925A0983E1F6
:1028500094E090935C0980935B096DE172E08DE5F3
:1028600099E00E94FA0DC093630910926409D09315
:10287000650910936609C093670984E194E0909319
:102880006909809368096DE172E08AE699E00E9427
:10289000FA0DC093700910927109D09372091093C8
:1028A00073090093740980EF93E090937609809305
:1028B00075096DE172E087E799E00E94FA0DC09317
:1028C0007D0910927E09D0937F091093800910939F
:1028D000810981EF93E090938309809382096DE1F0
:1028E00072E084E899E00E94FA0DC0938A09109280
:1028F0008B09D0938C0900938D0910928E0982E286
:1029000094E09093900980938F096DE172E081E9E2
:1029100099E00E94FA0DC093970910929809D093FC
:10292000990900939A0910939B0983E294E090938C
:102930009D0980939C096DE172E08EE999E00E9407
:10294000FA0DC093A4091092A509D093A60900938B
:10295000A7096092A80987EF93E09093AA09809352
:10296000A9096DE172E08BEA99E00E94FA0DC0932B
:10297000B1091092B209D093B3090093B409F0924F
:10298000B50986EF93E09093B7098093B6096DE19E
:1029900072E088EB99E00E94FA0DC093BE09109294
:1029A000BF09D093C0090093C1098092C20985EF85
:1029B00093E09093C4098093C3096DE172E085ECC4
:1029C00099E00E94FA0DC093CB091092CC09D093E4
:1029D000CD090093CE097092CF0984EF93E09093D4
:1029E000D1098093D0096DE172E082ED99E00E94F7
:1029F000FA0DC093D8091092D909D093DA0900933F
:102A0000DB09A092DC0982EF93E09093DE098093CA
:102A1000DD096DE172E08FED99E00E94FA0DC0933F
:102A2000E5091092E609D093E7090093E809D092EE
:102A3000E90983EF93E09093EB098093EA096DE154
:102A400072E08CEE99E00E94FA0DC093F2091092A8
:102A5000F309D093F4090093F509C092F60987E1D0
:102A600094E09093F8098093F7096DE172E089EFA3
:102A700099E00E94FA0DC093FF091092000AD093CA
:102A8000010A0093020A5092030A88E194E09093AD
:102A9000050A8093040A6DE172E086E09AE00E94E4
:102AA000FA0DC0930C0A10920D0AD0930E0A0093EF
:102AB0000F0AE092100A85E194E09093120A809345
:102AC000110A6DE172E083E19AE00E94FA0DC09371
:102AD000190A10921A0AD0931B0A00931C0A9092AA
:102AE0001D0A86E194E090931F0A80931E0A6DE10F
:102AF00072E080E29AE00E94FA0DC093260A1092DA
:102B0000270AD093280A0093290AB0922A0A8EEE47
:102B100093E090932C0A80932B0A6DE172E08DE292
:102B20009AE00E94FA0DC093330A1092340AD093AF
:102B3000350A0093360A8FE08093370A8FEE93E0D0
:102B40009093390A8093380A6DE172E08AE39AE043
:102B50000E94FA0DC093400A1092410AD093420A93
:102B60000093430A80E18093440A89E094E09093C3
:102B7000460A8093450A6DE172E087E49AE00E947C
:102B8000FA0DC0934D0A10924E0AD0934F0A00934B
:102B9000500A91E1492E4092510A8AE094E09093C4
:102BA000530A8093520A6DE172E084E59AE00E9434
:102BB000FA0DC0935A0A10925B0AD0935C0A0093F4
:102BC0005D0A20925E0A8CEE93E09093600A8093F7
:102BD0005F0A6DE172E081E69AE00E94FA0DC0930F
:102BE000670A1092680AD093690A00936A0A3092C1
:102BF0006B0A8DEE93E090936D0A80936C0A6DE101
:102C000072E08EE69AE00E94FA0DC093740A109268
:102C1000750AD093760A1093770A87E18093780A31
:102C20008CE294E090937A0A8093790A6DE172E0E5
:102C30008BE79AE00E94FA0DC093810A1092820AF3
:102C4000D093830A1093840A86E18093850A8DE2EB
:102C500094E09093870A8093860A6DE172E088E899
:102C60009AE00E94FA0DC0938E0A10928F0AD093B8
:102C7000900A1093910A80E18093920A8EE294E088
:102C80009093940A8093930A6DE172E085E99AE04B
:102C90000E94FA0DC0939B0A10929C0AD0939D0A41
:102CA00010939E0A40929F0A8FE294E09093A10AAB
:102CB0008093A00A6DE172E082EA9AE00E94FA0D28
:102CC000C093A80A1092A90AD093AA0A1093AB0A3B
:102CD0008FE08093AC0A80E394E09093AE0A8093F7
:102CE000AD0A6DE172E08FEA9AE00E94FA0DC0939E
:102CF000B50A1092B60AD093B70A1093B80AB092E8
:102D0000B90A81E394E09093BB0A8093BA0A6DE11B
:102D100072E08CEB9AE00E94FA0DC093C20A109206
:102D2000C30AD093C40A1093C50AA092C60A82E3CC
:102D300094E09093C80A8093C70A6DE172E089EC31
:102D40009AE00E94FA0DC093CF0A1092D00AD09355
:102D5000D10A1093D20AD092D30A83E394E09093DD
:102D6000D50A8093D40A6DE172E086ED9AE00E9464
:102D7000FA0DC093DC0A1092DD0AD093DE0A10939C
:102D8000DF0AC092E00A84E394E09093E20A809321
:102D9000E10A6DE172E083EE9AE00E94FA0DC093C1
:102DA000E90A1092EA0AD093EB0A1093EC0A5092C7
:102DB000ED0A85E394E09093EF0A8093EE0A6DE1CB
:102DC00072E080EF9AE00E94FA0DC093F60A10922A
:102DD000F70AD093F80AC093F90A87E18093FA0AB8
:102DE00084E294E09093FC0A8093FB0A6DE172E028
:102DF0008DEF9AE00E94FA0DC093030B1092040B22
:102E0000D093050BC093060B86E18093070B85E2F8
:102E100094E09093090B8093080B6DE172E08AE0D7
:102E20009BE00E94FA0DC093100B1092110BD093EF
:102E3000120BC093130B85E18093140B86E294E090
:102E40009093160B8093150B6DE172E087E19BE088
:102E50000E94FA0DC0931D0B10921E0BD0931F0BF6
:102E6000C093200B84E18093210B87E294E0909340
:102E7000230B8093220B6DE172E084E29BE00E94C1
:102E8000FA0DC0932A0B10922B0BD0932C0BC093EE
:102E90002D0B30922E0B88E294E09093300B8093B0
:102EA0002F0B6DE172E081E39BE00E94FA0DC0936D
:102EB000370B1092380BD093390BC0933A0B2092FA
:102EC0003B0B89E294E090933D0B80933C0B6DE1CA
:102ED00072E08EE39BE00E94FA0DC093440B1092C7
:102EE000450BD093460BC093470B4092480B8AE2A8
:102EF00094E090934A0B8093490B6DE172E08BE470
:102F00009BE00E94FA0DC093510B1092520BD0938C
:102F1000530BC093540B80E18093550B8BE294E0EC
:102F20009093570B8093560B6DE172E088E59BE020
:102F30000E94FA0DC0935E0B10925F0BD093600B52
:102F400010928F0386E2809390038DE398E0909334
:102F50009203809391036DE172E083E993E00E9414
:102F6000FA0DC093990310929A03D0939B03109289
:102F70009C0388E280939D038FE398E090939F03E6
:102F800080939E036DE172E080EA93E00E94FA0D67
:102F9000C093A6031092A703D093A8031092A9038D
:102FA00087E28093AA038EE398E09093AC0380932A
:102FB000AB036DE172E08DEA93E00E94FA0DC093DD
:102FC000B3031092B403D093B5031092B6034092AA
:102FD000B70382ED97E09093B9038093B8036DE156
:102FE00072E08AEB93E00E94FA0DC093C003109246
:102FF000C103D093C203C093C3031092C40383EDF3
:1030000097E09093C6038093C5036DE172E087EC6F
:1030100093E00E94FA0DC093CD031092CE03D0939B
:10302000CF03C093D0031093D10384ED97E0909326
:10303000D3038093D2036DE172E084ED93E00E94AC
:10304000FA0DC093DA031092DB03D093DC031092E5
:10305000DD032092DE0387E598E09093E003809300
:10306000DF036DE172E081EE93E00E94FA0DC09300
:10307000E7031092E803D093E903C093EA03C093F7
:10308000EB0388E598E09093ED038093EC036DE10A
:1030900072E08EEE93E00E94FA0DC093F40310925A
:1030A000F503D093F603C093F7030093F80389E583
:1030B00098E09093FA038093F9036DE172E08BEF4F
:1030C00093E00E94FA0DC093010410920204D09381
:1030D0000304109204048BE18093050482E598E0D8
:1030E00090930704809306046DE172E088E094E019
:1030F0000E94FA0DC0930E0410920F04D093100496
:10310000109211043092120483E598E09093140415
:10311000809313046DE172E085E194E00E94FA0D62
:10312000C0931B0410921C04D0931D04C0931E0472
:1031300070921F0484E598E090932104809320040A
:103140006DE172E082E294E00E94FA0DC0932804DF
:1031500010922904D0932A04C0932B0480922C044B
:1031600085E598E090932E0480932D046DE172E044
:103170008FE294E00E94FA0DC09335041092360459
:10318000D0933704C09338046092390486E598E000
:1031900090933B0480933A046DE172E08CE394E0F9
:1031A0000E94FA0DC093420410924304D093440449
:1031B000109245048CE38093460480E498E0909359
:1031C0004804809347046DE172E089E494E00E9432
:1031D000FA0DC0934F0410925004D09351041092F2
:1031E00052048AE38093530481E498E09093550459
:1031F000809354046DE172E086E594E00E94FA0D3C
:10320000C0935C0410925D04D0935E0410925F043E
:103210008BE38093600482E498E09093620480934F
:1032200061046DE172E083E694E00E94FA0DC093C0
:10323000690410926A04D0936B0410926C048DE3BD
:1032400080936D0484E398E090936F0480936E0400
:103250006DE172E080E794E00E94FA0DC09376047D
:1032600010927704D0937804C093790430927A0452
:1032700089E398E090937C0480937B046DE172E095
:103280008DE794E00E94FA0DC093830410928404A9
:10329000D0938504C0938604E09287048AE498E082
:1032A00090938904809388046DE172E08AE894E049
:1032B0000E94FA0DC093900410929104D09392044E
:1032C000C09393045092940488E398E090939604FA
:1032D000809395046DE172E087E994E00E94FA0D15
:1032E000C0939D0410929E04D0939F041092A0045A
:1032F00082E48093A1048EE498E09093A3048093E9
:10330000A2046DE172E084EA94E00E94FA0DC09399
:10331000AA041092AB04D093AC041092AD0480E4E4
:103320008093AE048FE498E09093B0048093AF0450
:103330006DE172E081EB94E00E94FA0DC093B70456
:103340001092B804D093B9041092BA048FE380931A
:10335000BB0480E598E09093BD048093BC046DE1CC
:1033600072E08EEB94E00E94FA0DC093C4041092B8
:10337000C504D093C6041092C70481E48093C804A6
:1033800081E598E09093CA048093C9046DE172E0EE
:103390008BEC94E00E94FA0DC093D1041092D204F9
:1033A000D093D304C093D4049092D50485E398E0DD
:1033B0009093D7048093D6046DE172E088ED94E099
:1033C0000E94FA0DC093DE041092DF04D093E00453
:1033D000C093E104B092E20483E498E09093E404A3
:1033E0008093E3046DE172E085EE94E00E94FA0DB3
:1033F000C093EB041092EC04D093ED04C093EE0460
:103400008FE08093EF0484E498E09093F10480933C
:10341000F0046DE172E082EF94E00E94FA0DC09337
:10342000F8041092F904D093FA04C093FB04A0921C
:10343000FC0485E498E09093FE048093FD046DE124
:1034400072E08FEF94E00E94FA0DC0930505109290
:103450000605D0930705C0930805D092090586E4B8
:1034600098E090930B0580930A056DE172E08CE083
:1034700095E00E94FA0DC093120510921305D093A7
:103480001405C0931505C092160587E498E0909343
:103490001805809317056DE172E089E195E00E94BF
:1034A000FA0DC0931F0510922005D0932105C093FB
:1034B0002205F092230588E498E0909325058093F7
:1034C00024056DE172E086E295E00E94FA0DC0935A
:1034D0002C0510922D05D0932E0510922F0588E310
:1034E000809330058BE398E090933205809331050B
:1034F0006DE172E083E395E00E94FA0DC093390517
:1035000010923A05D0933B0510923C0586E38093D8
:103510003D058CE398E090933F0580933E056DE177
:1035200072E080E495E00E94FA0DC0934605109287
:103530004705D09348051092490587E380934A05D3
:103540008BE498E090934C0580934B056DE172E01D
:103550008DE495E00E94FA0DC09353051092540536
:10356000D09355051092560589E3809357058CE456
:1035700098E090935905809358056DE172E08AE5D3
:1035800095E00E94FA0DC093600510926105D093FA
:103590006205109263051093640581ED97E09093A6
:1035A0006605809365056DE172E087E695E00E940F
:1035B000FA0DC0936D0510926E05D0936F05C09300
:1035C00070054092710586E398E0909373058093AF
:1035D00072056DE172E084E795E00E94FA0DC093F8
:1035E0007A0510927B05D0937C05C0937D0580E120
:1035F00080937E0587E398E09093800580937F0514
:103600006DE172E081E895E00E94FA0DC0938705B4
:1036100010928805D0938905C0938A0587E180932D
:103620008B0589E498E090938D0580938C056DE17E
:1036300072E08EE895E00E94FA0DC0939405109216
:103640009505D093960510939705509298058AE3B7
:1036500098E090939A05809399056DE172E08BE96B
:1036600095E00E94FA0DC093A1051092A205D09397
:10367000A3051093A405A092A50580ED97E0909373
:10368000A7058093A6056DE172E088EA95E00E94A7
:10369000FA0DC093AE051092AF05D093B00510920D
:1036A000B1058CE28093B20588E998E09093B40567
:1036B0008093B3056DE172E085EB95E00E94FA0D11
:1036C000C093BB051092BC05D093BD051092BE05FA
:1036D00084E18093BF0589E998E09093C1058093C8
:1036E000C0056DE172E082EC95E00E94FA0DC09396
:1036F000C8051092C905D093CA051092CB058FE278
:103700008093CC058AE998E09093CE058093CD050F
:103710006DE172E08FEC95E00E94FA0DC093D50543
:103720001092D605D093D7051093D805B092D9053D
:103730008BE998E09093DB058093DA056DE172E008
:103740008CED95E00E94FA0DC093E2051092E3051E
:10375000D093E4051093E505C093E6058CE998E065
:103760009093E8058093E7056DE172E089EE95E0BE
:103770000E94FA0DC093EF051092F005D093F10569
:103780001093F2051092F3058DE498E09093F505FF
:103790008093F4056DE172E086EF95E00E94FA0DEA
:1037A000C093FC051092FD05D093FE051092FF0515
:1037B00083E48093000620E6A22E29E0B22EB09288
:1037C0000206A09201066DE172E083E096E00E949D
:1037D000FA0D10920906D0930A06D0930B061092A8
:1037E0000C0684E480930D06B0920F06A0920E069C
:1037F0006DE172E080E196E00E94FA0DC09316063A
:10380000D0931706D09318061092190685E480937A
:103810001A06B0921C06A0921B066DE172E08DE1C3
:1038200096E00E94FA0D10932306D0932406D093BD
:1038300025061092260683E28093270632E6A32E01
:1038400039E0B32EB0922906A09228066DE172E00D
:103850008AE296E00E94FA0D10923006D09331066B
:10386000D09332061092330684E280933406B092ED
:103870003606A09235066DE172E087E396E00E947D
:10388000FA0DC0933D06D0933E06D0933F061092AA
:10389000400685E280934106B0924306A09242061C
:1038A0006DE172E084E496E00E94FA0D10934A06FE
:1038B000D0934B06D0934C0610924D0689E280932C
:1038C0004E0641E6A42E49E0B42EB0925006A092D6
:1038D0004F066DE172E081E596E00E94FA0D1092CC
:1038E0005706D0935806D093590610925A068AE28A
:1038F00080935B06B0925D06A0925C066DE172E07B
:103900008EE596E00E94FA0DC0936406D09365069A
:10391000D0936606109267068BE280936806B09299
:103920006A06A09269066DE172E08BE696E00E945D
:10393000FA0D10937106D0937206D0937306C0935C
:10394000740686E18093750653E6A52E59E0B52EE0
:10395000B0927706A09276066DE172E088E796E075
:103960000E94FA0D10927E06D0937F06D0938006B7
:10397000C093810685E180938206B0928406A0926E
:1039800083066DE172E085E896E00E94FA0DC0932F
:103990008B06D0938C06D0938D06C0938E0684E15F
:1039A00080938F06B0929106A09290066DE172E02E
:1039B00082E996E00E94FA0D10939806D09399063A
:1039C000D0939A0610929B068EE280939C066CEF31
:1039D000A62E68E0B62EB0929E06A0929D066DE1DE
:1039E00072E08FE996E00E94FA0D1093A506C0934D
:1039F000A606D093A7061092A8068DE28093A9068A
:103A0000B092AB06A092AA066DE172E08CEA96E055
:103A10000E94FA0D1092B206C093B306D093B4067A
:103A20001093B506C092B6067DEFA72E78E0B72EAC
:103A3000B092B806A092B7066DE172E089EB96E00D
:103A40000E94FA0D1092BF06C093C006D093C10623
:103A50001093C206D092C306B092C506A092C406C7
:103A60006DE172E086EC96E00E94FA0D1093CC06B0
:103A7000C093CD06D093CE061092CF0680E38093FC
:103A8000D006EEEFCE2EE8E0DE2ED092D206C09227
:103A9000D1066DE172E083ED96E00E94FA0D10937D
:103AA000D906C093DA06D093DB061092DC0681E3D8
:103AB0008093DD06D092DF06C092DE066DE172E0F3
:103AC00080EE96E00E94FA0D1092E606C093E7069B
:103AD000D093E8061092E9068EE18093EA06CC24A2
:103AE000CA94F8E0DF2ED092EC06C092EB066DE1AE
:103AF00072E08DEE96E00E94FA0D1093F306C093EB
:103B0000F406D093F5061092F6068CE18093F70642
:103B1000D092F906C092F8066DE172E08AEF96E065
:103B20000E94FA0D10920007C0930107D09302077C
:103B3000109203078FE180930407C12CA9E0DA2ECD
:103B4000D0920607C09205076DE172E087E097E02A
:103B50000E94FA0D10930D07C0930E07D0930F0724
:103B6000109210078DE180931107D0921307C09235
:103B700012076DE172E084E197E00E94FA0D109265
:103B80001A07C0931B07D0931C0710931D07E092E0
:103B90001E07B3E0CB2EB9E0DB2ED0922007C092F7
:103BA0001F076DE172E081E297E00E94FA0D10922A
:103BB0002707C0932807D093290710932A079092CC
:103BC0002B07D0922D07C0922C076DE172E08EE298
:103BD00097E00E94FA0D10933407C0933507D093F5
:103BE0003607109337078092380784E0C82E89E0A3
:103BF000D82ED0923A07C09239076DE172E08BE37C
:103C000097E00E94FA0D10934107C0934207D093AA
:103C100043071093440770924507D0924707C0921C
:103C200046076DE172E088E497E00E94FA0D109279
:103C30004E07C0934F07D09350071093510700933E
:103C40005207CC24C39499E0D92ED0925407C09245
:103C500053076DE172E085E597E00E94FA0D10933D
:103C60005B07C0935C07D0935D0710935E071093CA
:103C70005F07D0926107C09260076DE172E082E653
:103C800097E00E94FA0D10926807C0936907D093DD
:103C90006A0710936B0760926C0722E0C22E29E03E
:103CA000D22ED0926E07C0926D076DE172E08FE662
:103CB00097E00E94FA0D10937507C0937607D09392
:103CC000770710937807F0927907D0927B07C0921C
:103CD0007A076DE172E08CE797E00E94FA0D10928E
:103CE0008207C0938307D093840788E190E0909384
:103CF000850380938403F0928603109287031092C9
:103D000088031092890310928A0310928B031092F9
:103D10008C0310928D0310928E0320E130E03093DB
:103D20007A0320937903F0927B0310927D03109223
:103D30007C0310927F0310927E0320E230E03093E8
:103D4000700320936F03109271031092720310920C
:103D50007303109274039093670380936603109229
:103D600068031092690310926A0310926B03909398
:103D70005E0380935D0310925F03109260031092C4
:103D8000610310926203C6E0D0E0D0935303C09366
:103D9000520385E090E0909355038093540384E0B0
:103DA00090E0909357038093560381E090E09093C6
:103DB00059038093580361E086E00E94CE0361E0DE
:103DC000809154030E94CE0361E0809156030E94CB
:103DD000CE0361E0809156030E94A003D093530369
:103DE000C0935203E2E1F3E0119283E0E235F80779
:103DF000D9F7D0E0C0E08091580390915903C817DB
:103E0000D9073CF540E06FE0CE010E942207809187
:103E1000580390915903C817D9072CF447E06BE079
:103E2000CE010E94220740E069E0CE010E942207F5
:103E3000CE010E9483078091580390915903C817BF
:103E4000D9072CF440E06CE0CE010E9422072196B5
:103E5000D2CFDF91CF911F910F91FF90EF90DF9024
:103E6000CF90BF90AF909F908F907F906F905F901A
:103E70004F903F902F900895CF93DF93CDB7DEB74B
:103E80006E970FB6F894DEBF0FBECDBF789484B5A1
:103E9000826084BD84B5816084BD85B5826085BD46
:103EA00085B5816085BD80916E00816080936E00D4
:103EB00010928100809181008260809381008091C6
:103EC0008100816080938100809180008160809377
:103ED00080008091B10084608093B1008091B00037
:103EE00081608093B0008091910082608093910006
:103EF0008091910081608093910080919000816019
:103F0000809390008091A10082608093A1008091B5
:103F1000A10081608093A1008091A00081608093C6
:103F2000A000809121018260809321018091210174
:103F30008160809321018091200181608093200124
:103F400080917A00846080937A0080917A00826008
:103F500080937A0080917A00816080937A008091CA
:103F60007A00806880937A001092C1000E94450513
:103F70006093C8027093C9028093CA029093CB02E7
:103F80006093F5027093F6028093F7029093F80223
:103F900080E28093800361E00E94CE0382E28093FE
:103FA000820360E00E94CE0381E28093830361E09C
:103FB0000E94CE038EE08093750361E00E94CE03E1
:103FC00080E18093770360E00E94CE038FE08093CE
:103FD000780361E00E94CE0389E080936C0361E086
:103FE0000E94CE0387E080936D0361E00E94CE03C0
:103FF00088E080936E0361E00E94CE030E94250852
:104000008AE08093630361E00E94CE038BE080939B
:10401000640361E00E94CE038CE08093650361E05D
:104020000E94CE0383E693E00E94580889E18093C2
:104030005A0361E00E94CE038AE180935B0361E052
:104040000E94CE0388E180935C0361E00E94CE036E
:104050008AE593E00E945808809158039091590393
:104060001816190634F441E06CE090E080E00E94FC
:1040700022074091010250910202809158039091D1
:1040800059031816190644F44031510528F46AE022
:1040900090E080E00E9422071092F4026DE172E04D
:1040A00080EE92E00E94122A6DE172E08CEC92E0C8
:1040B0000E94122A0FE813E0D8018C91811105C0EB
:1040C00062E011968C910E94CE03035F1F4FB7E010
:1040D00005381B0789F705E817E0F1E6EF2EFBE04E
:1040E000FF2EF8018081811104C061E081810E946E
:1040F000CE03035F1F4FE016F10699F7E0917D0BA9
:10410000F0917E0B82E08083E091790BF0917A0B45
:104110001082E0917B0BF0917C0B80E18083109208
:10412000850BE091810BF091820B86E08083E0911A
:104130007F0BF091800B808180618083E0917F0B09
:10414000F091800B808188608083E0917F0BF091FB
:10415000800B808180688083E0917F0BF091800BE1
:1041600080818F7D80836CE173E083E00E94E30AAD
:104170008CEF9AE09093630E8093620E88E99DE045
:104180009093670E8093660E87EF9AE09093690E86
:104190008093680E8FEC98E090936D0E80936C0E78
:1041A00083ED98E090936F0E80936E0E8EE19FE00A
:1041B0009093710E8093700E8CED99E09093790E30
:1041C0008093780E87EE99E090937D0E80937C0E1D
:1041D000CC24CA94DC2C7601C0927103D092720375
:1041E000E0927303F09274030E942508C092680362
:1041F000D0926903E0926A03F0926B0383E693E046
:104200000E945808C0925F03D0926003E09261035D
:10421000F09262038AE593E00E94580888EE93E0EA
:104220000E94AB07109271031092720310927303F5
:10423000109274030E94250810926803109269037B
:1042400010926A0310926B0383E693E00E94580871
:1042500010925F0310926003109261031092620348
:104260008AE593E00E945808DD24D3946DE0262E61
:10427000312C75EC472E73E0572E612C712CEDE03C
:10428000CE2E0E9445050091F5021091F602209174
:10429000F7023091F802601B710B820B930B6333B2
:1042A00071058105910508F485C10E9472040E9480
:1042B00015048091C7028823E1F110E000E0C09E60
:1042C000C001C19E900D11249C0121573C4F7901E2
:1042D000D90112968D919C91805D97408C329140CE
:1042E00008F052C2C8010E94CC06F7012485022EB4
:1042F000000C330B8217130609F446C2C8010E9452
:10430000CC0681118CC288E00E94CE0AF70182811E
:1043100093810E94940AD7011A968C910E94B20A46
:104320000E94F809F70114860F5F1F4F0E34110524
:1043300034F28091C702882309F4A9C080917B00E0
:10434000886080937B00F0E4F0937C0080917A0099
:10435000806480937A0080917A0086FDFCCF209162
:104360007800309179008091C3029091C402FC01E1
:10437000EE0FFF1FE755FD4F318320830196B101FA
:104380000E94B1279093C4028093C30249EA52E08D
:10439000FE013196CF01DA012D913D91AD01DC0195
:1043A0002D933D93CD01B2E0433C5B07A1F790E034
:1043B00080E001968F010E5F1F4F78019C016081A4
:1043C0007181D7014D915D917D014617570744F4E6
:1043D00051834083AD0142505109DA016D937C93C2
:1043E0002F5F3F4F2D30310551F7F8018C3091058B
:1043F00001F76D857E85072E000C880B990B0E94B6
:10440000B5254B015C0180910002882309F49DC20F
:104410008092A5029092A602A092A702B092A80252
:10442000109200026091A5027091A6028091A702ED
:104430009091A8020E947B27DB012FEF30E00E94C1
:10444000CD27A30192010E94BE262F3F310519F00E
:1044500014F02FEF30E0890137FF02C010E000E0D8
:104460008091C5029091C6028017910781F088E083
:104470000E94CE0A80EA9FE00E94940AC8010E942E
:10448000940A0E94F8091093C6020093C50282E0C4
:104490000E947703892B51F480918B0380FD06C025
:1044A0008CED95E00E94AB07D092F40282E00E946E
:1044B0007703892B71F581E10E947703892B49F5F8
:1044C0008091010290910202019797FD69C2909339
:1044D00002028093010280910102909102020E94E7
:1044E0000B088091C7028823A1F0609101027091AE
:1044F0000202CE0101960E94600D80910A0C81118A
:1045000004C0CE0101960E94140DCE0101960E94B6
:10451000CD0C82E00E947703892B79F580918B0383
:1045200082FD2BC0809101029091020201968031A0
:1045300091050CF03AC2909302028093010280919F
:104540000102909102020E940B088091C702882309
:10455000A1F06091010270910202CE0101960E94C9
:10456000600D80910A0C811104C0CE0101960E9459
:10457000140DCE0101960E94CD0C8091F402882387
:1045800079F082E00E947703019751F480EE92E087
:104590000E94A70E8CEC92E00E94300E1092F40262
:1045A0000E9445056093F5027093F6028093F7022E
:1045B0009093F8020E9445050091C8021091C9022B
:1045C0002091CA023091CB02601B710B820B930BBE
:1045D000613E73498440910580F090E080E00E9444
:1045E00083070E9485080E9445056093C802709366
:1045F000C9028093CA029093CB028091110C811161
:10460000F5C180915B0E90915C0EDC01ED91FC9107
:104610000084F185E02D1995892B09F4E7C180917B
:104620005B0E90915C0EDC01ED91FC910084F185B4
:10463000E02D199500E012E08115924064F480911C
:104640005B0E90915C0EDC01ED91FC910084F18594
:10465000E02D19958C01E0905B0EF0905C0E93E5D7
:10466000892E9CE0992E9C8E8B8EB12CA12C0A1544
:104670001B0539F10E944505D70118966D937D936E
:104680008D939C931B97D701ED91FC910284F38548
:10469000E02DC701199597FFACC10E944505F701B0
:1046A0002085318542855385621B730B840B950BE6
:1046B00024813581468157816217730784079507E6
:1046C00010F3F12CE12C0E151F0509F496CFD4013F
:1046D0009D914D011092530E30915F0E2091100C60
:1046E0009093100C931304C0921302C01092100CFC
:1046F00080910C0CE82FF0E040915D0EE65FF34FE7
:1047000094135AC1321709F457C11186882321F036
:10471000D092530E1092100C10920C0C1092570E57
:104720001092560E1092590E1092580ED092540EAE
:10473000B090530EB1E0BB1255C10E94BF02882356
:1047400009F444C1B092540EB092550E8091560EA9
:104750009091570E0E942C2580930B0C823308F009
:104760003AC12091550E222309F435C1FC01FF27DF
:10477000EE0FFF1FEE59F14F0190F081E02D3097C1
:1047800009F429C119952EC1C09EC001C19E900D8A
:1047900011249C0121573C4F7901D90112968D912A
:1047A0009C919C012C5F38402436310508F0A0C054
:1047B0005801BFEFAB1ABB0AC8010E94CC06F70133
:1047C0002485022E000C330B82171306D9F1C80181
:1047D0000E94CC0681114AC088E00E94CE0AC09E89
:1047E000C001C19E900D11248C0101571C4FD801AE
:1047F00012968D919C910E94940AF80182850E94E4
:10480000B20A0E94F809D8011C961C92CA9CF001B9
:10481000CB9CF00D1124E157FC4FD48625C088E0D5
:104820000E94CE0AD70112968D919C910E94940A03
:10483000F70183850E94B20A0E94F809D7011C96ED
:10484000DC9272CDC5010E94CC06CA9CF001CB9CC3
:10485000F00D1124E157FC4F2485022E000C330B80
:104860008217130609F0B3CF85015ECDC5010E9402
:10487000CC06811122C088E00E94CE0ACA9CC001E9
:10488000CB9C900D1124FC01E157FC4F7F018281EC
:1048900093810E94940AD7011A968C910E94B20AC1
:1048A0000E94F809C09EF001C19EF00D1124E1574D
:1048B000FC4FD486F7011486D7CF88E00E94CE0A39
:1048C000C09EC001C19E900D11248C0101571C4F48
:1048D000D80112968D919C910E94940AF8018385CB
:1048E0000E94B20A0E94F809D8011C96DC928ECF71
:1048F000805699408536910508F016CDC8010E9472
:10490000CC06F7012485022E000C330B8217130608
:1049100009F40ACDC8010E94CC06811113C088E0B9
:104920000E94CE0AD70112968D919C910E94940A02
:10493000F70182850E94B20A0E94F809D7011C96ED
:104940001C92F2CCF701D486EFCC26E636E646E29E
:104950005FE36091A5027091A6028091A7029091F9
:10496000A8020E94F0256B8F7C8F8D8F9E8F23E392
:1049700033E343EB5EE3C501B4010E94F0259B01E4
:10498000AC016B8D7C8D8D8D9E8D0E940F27609369
:10499000A5027093A6028093A7029093A80242CD2D
:1049A000109202021092010296CDEFE0F0E0F09337
:1049B0000202E0930102C3CD91878F5F80930C0CBC
:1049C00090910E0C891708F0A7CEB2CE1092550E1A
:1049D00090E080E0C1CEE091600EF091610E3097E2
:1049E00009F0D0CEEFEFEE1AFE0A6DCE0E949B06C4
:1049F00048CCAB8DBC8D8D93BC8FAB8FBFEFAB1A0A
:104A0000BB0A35CECF93DF93C5E8D7E02D97CE0113
:104A100004960E94CD0C83E0CF38D807B9F7C1E6E1
:104A2000DBE02D97CE0104960E94CD0C87E0C538BF
:104A3000D807B9F781E69BE00E94CD0C87E69BE0A2
:104A40000E94CD0C86EC9EE00E94CD0C8CEC9EE08A
:104A5000DF91CF910C94CD0CFC0188279927E89425
:104A600021912032E9F3293010F02E30C8F32B3297
:104A700041F02D3239F4689404C00E949125820FD0
:104A8000911D219120532A30C0F31EF490958195F9
:104A90009F4F08951F93FC0199278827BC01E89434
:104AA00011911032E9F3193010F01E30C8F31B32A7
:104AB00051F01D3249F4689406C00E947C25610FB4
:104AC000711D811D911D119110531A30B0F33EF4E8
:104AD00090958095709561957F4F8F4F9F4F1F9157
:104AE0000895BB274A3031F4992322F4BDE2909512
:104AF00081959F4F0C949A25592F482F372F262F99
:104B0000660F771F881F991F660F771F881F991FD1
:104B1000620F731F841F951F660F771F881F991FD1
:104B200008957AE0979F902D879F802D910D1124F5
:104B30000895BB27FB015527AA27880F991FAA1F95
:104B4000A41710F0A41B83955051B9F7A05DAA33A8
:104B500008F0A95DA193009779F7B111B193119273
:104B6000CB010C945D26E89409C097FB3EF4909528
:104B70008095709561957F4F8F4F9F4F9923A9F036
:104B8000F92F96E9BB279395F695879577956795C5
:104B9000B795F111F8CFFAF4BB0F11F460FF1BC009
:104BA0006F5F7F4F8F4F9F4F16C0882311F096E99C
:104BB00011C0772321F09EE8872F762F05C066234A
:104BC00071F096E8862F70E060E02AF09A95660F03
:104BD000771F881FDAF7880F9695879597F90895BC
:104BE0000E9403260C9484260E94762638F00E94A8
:104BF0007D2620F0952311F00C946D260C947326DD
:104C000011240C94B8260E94952670F3959FC1F349
:104C1000950F50E0551F629FF001729FBB27F00D6A
:104C2000B11D639FAA27F00DB11DAA1F649F6627BF
:104C3000B00DA11D661F829F2227B00DA11D621F0E
:104C4000739FB00DA11D621F839FA00D611D221FC8
:104C5000749F3327A00D611D231F849F600D211DAC
:104C6000822F762F6A2F11249F5750409AF0F1F02F
:104C700088234AF0EE0FFF1FBB1F661F771F881F98
:104C800091505040A9F79E3F510580F00C946D263D
:104C90000C94B8265F3FE4F3983ED4F3869577955D
:104CA0006795B795F795E7959F5FC1F7FE2B880F3E
:104CB000911D9695879597F90895DC01FC01672F62
:104CC00071917723E1F7329704C07C916D937083E3
:104CD0006291AE17BF07C8F3089597F99F6780E800
:104CE00070E060E008959FEF80EC089500240A943E
:104CF0001616170618060906089500240A941216B7
:104D00001306140605060895092E0394000C11F4E9
:104D1000882352F0BB0F40F4BF2B11F460FF04C096
:104D20006F5F7F4F8F4F9F4F089557FD9058440FEF
:104D3000551F59F05F3F71F04795880F97FB991FFA
:104D400061F09F3F79F087950895121613061406B7
:104D5000551FF2CF4695F1DF08C016161706180644
:104D6000991FF1CF86957105610508940895E8941F
:104D7000BB2766277727CB0197F90895052E97FB68
:104D80001EF400940E94D52657FD07D00E94DD2610
:104D900007FC03D04EF40C94D526509540953095E1
:104DA00021953F4F4F4F5F4F089590958095709597
:104DB00061957F4F8F4F9F4F0895A1E21A2EAA1B36
:104DC000BB1BFD010DC0AA1FBB1FEE1FFF1FA217BB
:104DD000B307E407F50720F0A21BB30BE40BF50BB8
:104DE000661F771F881F991F1A9469F76095709541
:104DF000809590959B01AC01BD01CF010895A29FC4
:104E0000B001B39FC001A39F700D811D1124911D9E
:104E1000B29F700D811D1124911D08955058BB271C
:104E2000AA270E9426270C9484260E94762638F012
:104E30000E947D2620F039F49F3F19F426F40C944B
:104E400073260EF4E095E7FB0C946D26E92F0E9483
:104E5000952658F3BA17620773078407950720F061
:104E600079F4A6F50C94B7260EF4E0950B2EBA2F24
:104E7000A02D0B01B90190010C01CA01A001112460
:104E8000FF27591B99F0593F50F4503E68F11A160C
:104E9000F040A22F232F342F4427585FF3CF46959D
:104EA00037952795A795F0405395C9F77EF41F16BF
:104EB000BA0B620B730B840BBAF09150A1F0FF0F89
:104EC000BB1F661F771F881FC2F70EC0BA0F621F75
:104ED000731F841F48F4879577956795B795F79565
:104EE0009E3F08F0B0CF9395880F08F09927EE0FFA
:104EF0009795879508950E9482276894B1110C9424
:104F0000B82608950E949D2688F09F5798F0B92FE3
:104F10009927B751B0F0E1F0660F771F881F991FEE
:104F20001AF0BA95C9F714C0B13091F00E94B726B3
:104F3000B1E008950C94B726672F782F8827B85FC3
:104F400039F0B93FCCF3869577956795B395D9F746
:104F50003EF490958095709561957F4F8F4F9F4F50
:104F6000089597FB072E16F4009407D077FD09D01B
:104F70000E94D42707FC05D03EF4909581959F4F61
:104F80000895709561957F4F0895EE0FFF1F881F5C
:104F90008BBF0790F691E02D19940E94FF26B7FF72
:104FA0000895821B930B0895AA1BBB1B51E107C0F8
:104FB000AA1FBB1FA617B70710F0A61BB70B881FA9
:104FC000991F5A95A9F780959095BC01CD01089538
:104FD0000F931F93CF93DF938230910510F482E0FB
:104FE00090E0E091D40EF091D50E30E020E0B0E0FA
:104FF000A0E0309799F42115310509F44AC0281B27
:10500000390B24303105D8F58A819B8161157105F2
:1050100089F1FB0193838283FE0111C0408151819C
:105020000281138148175907E0F04817590799F48E
:10503000109761F012960C93129713961C93329668
:10504000CF01DF91CF911F910F9108950093D40E5E
:105050001093D50EF4CF2115310551F042175307A7
:1050600038F0A901DB019A01BD01DF01F801C1CFD0
:10507000EF01F9CF9093D50E8093D40ECDCFFE01E2
:10508000E20FF31F819391932250310939832883D2
:10509000D7CF2091D20E3091D30E232B41F4209103
:1050A0000502309106023093D30E2093D20E209148
:1050B0000302309104022115310541F42DB73EB7AA
:1050C0004091070250910802241B350BE091D20E4B
:1050D000F091D30EE217F307A0F42E1B3F0B281715
:1050E000390778F0AC014E5F5F4F2417350748F061
:1050F0004E0F5F1F5093D30E4093D20E8193919326
:105100009FCFF0E0E0E09CCFCF93DF930097E9F0F2
:10511000FC01329713821282A091D40EB091D50E69
:10512000ED0130E020E01097A1F420813181820F61
:10513000931F2091D20E3091D30E2817390709F012
:1051400061C0F093D30EE093D20EDF91CF9108951A
:10515000EA01CE17DF07E8F54A815B819E01411520
:105160005105B1F7E901FB83EA8349915991C40FD5
:10517000D51FEC17FD0761F4808191810296840FA1
:10518000951FE90199838883828193819B838A8318
:10519000F0E0E0E012968D919C9113970097B9F59D
:1051A0002D913C911197CD010296820F931F209172
:1051B000D20E3091D30E2817390739F6309751F5B2
:1051C0001092D50E1092D40EB093D30EA093D20E9F
:1051D000BCCFD383C28340815181840F951FC817F0
:1051E000D90761F44E5F5F4F88819981480F591F3D
:1051F000518340838A819B8193838283211531056A
:1052000009F0B0CFF093D50EE093D40E9ECFFD0100
:10521000DC01C0CF13821282D7CF4F925F926F9280
:105220007F928F929F92AF92BF92CF92DF92EF9236
:10523000FF920F931F93CF93DF938C01009799F404
:10524000CB01DF91CF911F910F91FF90EF90DF90F5
:10525000CF90BF90AF909F908F907F906F905F9016
:105260004F900C94E827FC01E60FF71F9C01225099
:105270003109E217F30708F4AEC0D901CD91DC91F2
:105280001197C617D70720F1C530D10578F0CE01A8
:1052900004978617970750F0C61BD70B2297C19328
:1052A000D1936D937C93CF010E948428C801DF9134
:1052B000CF911F910F91FF90EF90DF90CF90BF9013
:1052C000AF909F908F907F906F905F904F900895D8
:1052D0005B01AC1ABD0A4C018C0E9D1EA091D40E30
:1052E000B091D50E512C412CF12CE12C109731F5B9
:1052F0008091D20E9091D30E8815990509F05CC06B
:105300004616570608F058C0809103029091040297
:10531000009741F48DB79EB7409107025091080263
:10532000841B950BE817F90708F055C0F093D30ECE
:10533000E093D20EF90171836083B8CF8D919C9177
:10534000119712966C90129713967C901397A8154C
:10535000B90559F56C0142E0C40ED11CCA14DB0436
:1053600020F1AC014A195B09DA011296159780F019
:105370006282738251834083D9016D937C93E114DF
:10538000F10471F0D7011396FC93EE9312978ECF30
:1053900022968C0F9D1FF90191838083F301EFCF3B
:1053A000F093D50EE093D40E81CF4816590608F439
:1053B0002C017D01D3019ACFCB010E94E8277C010B
:1053C000009749F0AE01B8010E94EE29C8010E9481
:1053D000842887016BCF10E000E068CFFB01DC017F
:1053E00002C001900D9241505040D8F708956817BF
:1053F000790768F4FB01DC01E40FF51FA40FB51F6A
:1054000002C002900E9241505040D8F708950C947B
:10541000EE29FB01DC018D91019080190110D9F377
:10542000990B0895FB01DC0101900D920020E1F73A
:10543000089512E0CAE6D2E000E006C0802FFE0127
:105440000E94C5272196011DCB36D10780E00807B1
:06545000A9F7F894FFCF5C
:105456000108000000D60E8000000000002E06980D
:1054660005C5057B06F605D405E8050D0A00494E77
:105476004954005343414E53544154450050494EFC
:105486004700454E4400434F4E464947005354415A
:1054960052540053544F5000444953434F4E4E45C7
:1054A60043540038383800723031003336306238B1
:1054B6003132656631306433336535343537656589
:1054C6003762343132383435333666007B363664EB
:1054D60064303139372D306463322D343335322D13
:1054E600386165352D363837646536633330656621
:0454F600347D000001
:00000001FF
