:100000000C9468020C9499020C9499020C94990235
:100010000C9499020C9499020C9499020C949902F4
:100020000C9499020C9499020C9499020C949902E4
:100030000C9499020C9499020C9499020C949902D4
:100040000C9499020C9499020C9499020C949902C4
:100050000C9499020C9499020C9499020C94660EDB
:100060000C9499020C94DA0E0C94B00E0C94990234
:100070000C9499020C9499020C9499020C94990294
:100080000C9499020C9499020C9499020C94990284
:100090000C9499020C9499020C9499020C94990274
:1000A0000C9499020C9499020C9499020C94990264
:1000B0000C9499020C9499020C9499020C94990254
:1000C0000C9499020C9499020C9499020C94990244
:1000D0000C9499020C9499020C9499020C94990234
:1000E0000C9499020C9400050C94F60D0C943C05AC
:1000F0000C945E030C9454030C946B030C94100F3B
:100100000C945E050C9450050C942D050C94400342
:100110000C946C030C944A030C94C0090C9496053F
:100120000C943D030C94E3050C948C1F0C94EA0B87
:100130000C9446030C94C4090C9462030C94910A29
:100140000C9466030C94EF0B0C9439030C94580335
:100150000C9435030C94930A0C94860A0C94310386
:100160000C942B030C9470030C9450034E414E4995
:100170004E495459494E46CDCCCC3D0AD7233C1765
:10018000B7D13877CC2B329595E6241FB14F0A00B2
:100190000020410000C84200401C4620BCBE4CCAA2
:1001A0001B0E5AAEC59D74554E4B4E4F574E2043B5
:1001B0004F4D4D414E44004144442C31332C56495F
:1001C000525455414C5F504F5745522C55382C5284
:1001D000572C5669727475616C20506F7765722C5C
:1001E0004F56455248454144207669727475616C9A
:1001F00020706F7765722030206F7220312C50454F
:1002000052534953543D31004144442C31312C4424
:100210004953504C41595F4252492C55382C525742
:100220002C446973706C61797320427269676874D9
:100230006E6573732C566F6C746D65746572732084
:10024000646967697473206272696768746E657344
:10025000732066726F6D203020746F2031352C5002
:100260004552534953543D3100504F4E470053546B
:100270004154455343414E00535441544553434127
:100280004E00414C4C4F574C4F43414C3D31005078
:1002900049443D434654413332584F5648434F4DED
:1002A00050414354005649443D314C325000415571
:1002B00054484F523D333630623831326566313002
:1002C00064333365353435376565376234313238F8
:1002D0003435333666004346542041333258204F7C
:1002E000564820434F4D50414354007B36373437F6
:1002F000336265392D306166662D343865632D387B
:100300006331662D62356639383962343662373585
:100310007D005350414400415454414348494E47A5
:100320002043414C4C4241434B53210000002100EB
:10033000240027002A002D003000330001010000B6
:10034000040107010A0100002200250028002B00FB
:100350002E003100340002010000050108010B01EC
:10036000000020002300260029002C002F0032006E
:100370000001000003010601090105050505070547
:1003800008080808020202020A0A08080404040411
:10039000010101010101010103030303030303033D
:1003A000040707070C0C0C0C0C0C0C0C02020202CC
:1003B00006060606060606060B0B0B0B0B0B0B0BB5
:1003C0000102102020080810204010204080020167
:1003D000020108040201010204081020408080404C
:1003E000201008040201800402018040201008044B
:1003F00002010804020101020408102040800102E9
:1004000004081020408000000A0B02090C0D0E08A1
:1004100007030401000000000000000000000000CD
:1004200000000000000000000000000000000000CC
:100430000000121110000000000000000000000089
:100440000000000000000000000000007E306D7918
:10045000335B5F707F7B771F0D3D4F4700000000CF
:10046000000000000000000000000000000000008C
:100470000000000000000000800180007E306D79E7
:10048000335B5F707F7B00000000000000771F0D72
:100490003D4F4700370000000E00000067000000DD
:1004A00000000000000000000000000800771F0DA1
:1004B0003D4F4700370000000E00151D670000008B
:1004C000000000000000000000000000100F8C1F62
:1004D00011241FBECFEFD1E2DEBFCDBF00E00CBFC5
:1004E0002CE0AAE9B2E001C01D92A23CB207E1F7FC
:1004F00012E0A0E0B2E0EAE0FBE400E00BBF02C0E3
:1005000007900D92AA39B107D9F712E0C7E6D2E0F9
:1005100000E006C021970109802FFE010E944C23B4
:10052000C636D10780E00807A9F70E94051B0C9486
:1005300073250C940000AC011092050A9091550CA3
:100540008091540CFA01BF01641B750B2091050AC0
:1005500030813093050A931304C0921302C01092A5
:10056000050A3081311104C0921721F0CB010895A2
:100570003817D1F33196E7CF0F931F93CF93DF93C3
:100580008091490C882309F446C0D0E0C0E0813056
:1005900029F482E08093490CC9E0DAE080914A0CAA
:1005A000882341F1209721F4C0914E0CD0914F0C3B
:1005B0008E01CE010E949B02892B29F42196F8011D
:1005C00080818111F5CFF8018081882309F1C8016C
:1005D0000E949B02F801E80FF91F8081882311F027
:1005E00010823196F0934F0CE0934E0C10934D0C0B
:1005F00000934C0C80914C0C90914D0C892B59F030
:1006000081E080934A0CDF91CF911F910F91089563
:1006100010E000E0EBCF80E0F6CF8150823108F0AF
:100620005AC0E82FF0E08827E75EFC4F8F4F0C940C
:100630004C2339033D032B03310335036B03400384
:1006400046034A035003540358035E0362036B03DB
:1006500066036C037003809180008F778093800025
:100660000895809180008F7DF9CF80918000877FF1
:10067000F5CF84B58F7784BD089584B58F7DFBCF8A
:100680008091B0008F778093B00008958091B00082
:100690008F7DF9CF809190008F778093900008959F
:1006A000809190008F7DF9CF80919000877FF5CF6A
:1006B0008091A0008F778093A00008958091A00082
:1006C0008F7DF9CF8091A000877FF5CF80912001A9
:1006D0008F77809320010895809120018F7DF9CF3D
:1006E00080912001877FF5CFCF93DF93282F30E0D3
:1006F000F901EA5FFB4F8491F901E054FC4FD4917A
:10070000F901E658FC4FC491CC23A1F081110E945D
:100710000D03EC2FF0E0EE0FFF1FE05AFC4FA59108
:10072000B491EC91ED2381E090E009F480E0DF9159
:10073000CF91089580E090E0FACF1F93CF93DF939D
:10074000282F30E0F901EA5FFB4F8491F901E05472
:10075000FC4FD491F901E658FC4FC491CC23A9F089
:10076000162F81110E940D03EC2FF0E0EE0FFF1FFA
:10077000EA5BFC4FA591B4918FB7F894EC911111FD
:1007800008C0D095DE23DC938FBFDF91CF911F91FE
:100790000895DE2BF8CFCF93DF9390E0FC01E05477
:1007A000FC4F249186589C4FFC0184918823C9F00A
:1007B00090E0880F991FFC01E45DFC4FA591B49176
:1007C000FC01EA5BFC4FC591D49161110DC09FB74C
:1007D000F8948C91209582238C93888128232883F8
:1007E0009FBFDF91CF910895623051F49FB7F89485
:1007F0003C91822F809583238C93E8812E2BEFCF21
:100800008FB7F894EC912E2B2C938FBFEACF8230C8
:10081000910538F0880F991F880F991F0597019748
:10082000F1F708950F931F93CF93DF9380911F03E8
:100830009091200390931E0380931D0360E08091AC
:1008400016030E949D0380911C0390E00E94070400
:1008500061E0809116030E949D0310E000E0D0E06B
:10086000C0E080911A0390911B030817190728F51F
:10087000809118030E94740320911A0330911B0386
:1008800021503109201B310B02C0880F991F2A9576
:10089000E2F7C82BD92B61E0809119030E949D03D8
:1008A00080911C0390E00E94070460E0809119038E
:1008B0000E949D030F5F1F4FD4CFD0932003C0939E
:1008C0001F03CE01DF91CF911F910F9108953FB784
:1008D000F8948091A8029091A902A091AA02B091E7
:1008E000AB0226B5A89B05C02F3F19F00196A11DAC
:1008F000B11D3FBFBA2FA92F982F8827BC01CD016A
:10090000620F711D811D911D42E0660F771F881FC8
:10091000991F4A95D1F708958F929F92AF92BF92F7
:10092000CF92DF92EF92FF926B017C010E946704ED
:100930004B015C01C114D104E104F104B9F00E943F
:100940006704681979098A099B09683E7340810523
:10095000910580F321E0C21AD108E108F10888EE80
:10096000880E83E0981EA11CB11CE4CFFF90EF908D
:10097000DF90CF90BF90AF909F908F9008952FB74A
:10098000F8946091A4027091A5028091A6029091C2
:10099000A7022FBF0895DC01ED91FC910190F08139
:1009A000E02D1994EF92FF920F931F93CF93DF9353
:1009B0002091000A2223E9F08C016091540C80916F
:1009C000510C9091520C0E94CB04E090510CF0908D
:1009D000520CE801FE016491662359F0D701ED91B4
:1009E000FC910190F081E02DC70119952196892B8A
:1009F00089F7DF91CF911F910F91FF90EF900895AC
:100A0000AF92BF92CF92DF92EF92FF920F931F931C
:100A1000CF93DF936C017B018B01040F151FEB015A
:100A20005E01AE18BF08C017D10759F06991D60111
:100A3000ED91FC910190F081E02DC6011995892B73
:100A400079F7C501DF91CF911F910F91FF90EF9042
:100A5000DF90CF90BF90AF900895FC01538D448DEF
:100A6000252F30E0842F90E0821B930B541710F059
:100A7000CF96089501970895FC01918D828D981766
:100A800061F0A28DAE0FBF2FB11D5D968C91928D3E
:100A90009F5F9F73928F90E008958FEF9FEF08956F
:100AA000FC01918D828D981731F0828DE80FF11D38
:100AB000858D90E008958FEF9FEF0895FC01918D53
:100AC000228D892F90E0805C9F4F821B91098F734C
:100AD0009927089583E699E00E945E0521E0892B1D
:100AE00009F420E0822F0895FC01A48DA80FB92FEE
:100AF000B11DA35ABF4F2C91848D90E001968F7346
:100B00009927848FA689B7892C93A089B1898C9164
:100B1000837080648C93938D848D981306C00288B3
:100B2000F389E02D80818F7D80830895EF92FF927D
:100B30000F931F93CF93DF93EC0181E0888F9B8D00
:100B40008C8D98131AC0E889F989808185FF15C0BA
:100B50009FB7F894EE89FF896083E889F9898081DD
:100B60008370806480839FBF81E090E0DF91CF91AC
:100B70001F910F91FF90EF900895F62E0B8D10E0CE
:100B80000F5F1F4F0F731127E02E8C8D8E110CC03D
:100B90000FB607FCFACFE889F989808185FFF5CF88
:100BA000CE010E947405F1CFEB8DEC0FFD2FF11DEE
:100BB000E35AFF4FF0829FB7F8940B8FEA89FB89C5
:100BC00080818062CFCFCF93DF93EC01888D882323
:100BD000B9F0AA89BB89E889F9898C9185FD03C0A0
:100BE000808186FD0DC00FB607FCF7CF8C9185FF85
:100BF000F2CF808185FFEDCFCE010E947405E9CF51
:100C0000DF91CF91089580E090E0892B29F00E9438
:100C10006A0581110E94000080E090E0892B49F074
:100C200080E090E0892B29F00E94000081110E9451
:100C3000000080E090E0892B49F080E090E0892B73
:100C400029F00E94000081110E94000080E090E0E5
:100C5000892B49F080E090E0892B29F00E94000068
:100C600081110C9400000895CF92DF92EF92FF92D1
:100C70000F931F93CF93DF93EC018B859C85AD85FC
:100C8000BE858F839887A987BA8760E088810E9494
:100C90009D038E8190E00E94070461E088810E949C
:100CA0009D0310E000E0C12CD12C76018C819D8148
:100CB0000817190738F58A810E947403092E000C61
:100CC000AA0BBB0B2C813D8121503109201B310B1C
:100CD00004C0880F991FAA1FBB1F2A95D2F7C82AE4
:100CE000D92AEA2AFB2A61E08B810E949D038E812A
:100CF00090E00E94070460E08B810E949D030F5FDB
:100D00001F4FD4CFCB86DC86ED86FE8681E04F81F7
:100D1000588569857A854C155D056E057F0509F452
:100D200080E0DF91CF911F910F91FF90EF90DF90C6
:100D3000CF9008952DE0289FF001299FF00D1124F8
:100D4000E15CFC4F8081811109C081810E947403A4
:100D500021E0892B09F420E0822F0895813099F455
:100D6000218180913B0390913C03A0913D03B09180
:100D70003E0304C0B695A795979587952A95D2F717
:100D8000282F2170E9CF823051F4218180912C03EA
:100D900090912D03A0912E03B0912F03EACF21E073
:100DA0008330D1F6218180911F039091200302C0EE
:100DB000969587952A95E2F7E3CF0F931F93CF93EC
:100DC000DF93082F162FD42FC8E06D2F661F6627DC
:100DD000661F802F0E949D03DD0F61E0812F0E941E
:100DE0009D0360E0812F0E949D03C15071F7DF9148
:100DF000CF911F910F9108950F931F93CF93DF937E
:100E00001F921F92CDB7DEB769834A83880F991F5F
:100E10000091020310910303000F111FECEAF2E0AE
:100E20009F012C5A32402017310714F41192F8CF49
:100E30002981FC01E455FD4F21838A81808360E094
:100E4000809100030E949D03101611066CF401505E
:100E50001109F801E455FD4F40816091FE02809137
:100E6000FC020E94DD06F0CF61E0809100030F904C
:100E70000F90DF91CF911F910F910C949D032091C2
:100E800002033091030312161306ACF4603198F498
:100E9000E62FF0E0E45BFB4FE4914111E068DC01F8
:100EA000A455BD4F5096EC9361E0680F4E2F90E033
:100EB00080E00C94FC060895209102033091030316
:100EC00012161306A4F4E62F660FFF0BE45BFB4F2C
:100ED000E4914111E068DC01A455BD4F5096EC93BC
:100EE00061E0680F4E2F90E080E00C94FC060895BE
:100EF0008F929F92AF92BF92CF92DF92EF92FF922A
:100F0000CF936B017C0120E030E0A9010E948F218A
:100F100087FD0AC02DEC3CEC47EC52E4C701B6015A
:100F20000E9406231816DCF440E060E282E090E0C4
:100F30000E945C0740E060E281E090E00E945C0774
:100F400040E060E290E080E0CF91FF90EF90DF9092
:100F5000CF90BF90AF909F908F900C945C0720E053
:100F600030E040E251E4C701B6010E94F5210E9441
:100F7000D0226B017C012AE030E040E050E00E948A
:100F80002D23C62F84E6C816D104E104F1049CF198
:100F9000C701B60124E630E040E050E00E942D2376
:100FA00040E0622F82E090E00E943F078AE0882EB6
:100FB000912CA12CB12CC701B601A50194010E946E
:100FC0002D23CA01B901A50194010E942D2341E0FE
:100FD00081E090E00E943F0740E06C2F90E080E0CD
:100FE000CF91FF90EF90DF90CF90BF90AF909F9008
:100FF0008F900C943F0740E060E282E090E00E9416
:101000005C078AE0C816D104E104F1047CF641E0F3
:1010100060E381E090E00E945C07DECF8F929F92B8
:10102000AF92BF92CF92DF92EF92FF92CF936B017C
:101030007C0120E030E0A9010E948F2187FD0AC0D9
:101040002DEC3CEC47EC52E4C701B6010E940623AC
:101050001816DCF440E060E285E090E00E945C0756
:1010600040E060E284E090E00E945C0740E060E2E3
:1010700083E090E0CF91FF90EF90DF90CF90BF9012
:10108000AF909F908F900C945C0720E030E040E29E
:1010900051E4C701B6010E94F5210E94D0226B01E4
:1010A0007C012AE030E040E050E00E942D23C62F72
:1010B00084E6C816D104E104F1049CF1C701B6012D
:1010C00024E630E040E050E00E942D2340E0622F13
:1010D00085E090E00E943F078AE0882E912CA12CA9
:1010E000B12CC701B601A50194010E942D23CA01AC
:1010F000B901A50194010E942D2341E084E090E014
:101100000E943F0740E06C2F83E090E0CF91FF907A
:10111000EF90DF90CF90BF90AF909F908F900C9406
:101120003F0740E060E285E090E00E945C078AE0D3
:10113000C816D104E104F1047CF641E060E384E0E8
:1011400090E00E945C07DECFEF92FF921F93CF9357
:10115000DF93209102033091030382179307B4F4C5
:10116000EC0123E0880F991F2A95E1F79C01245494
:101170003D4F790111E0F70111927F0140E0612FAD
:10118000CE010E94FC061F5F1930A9F7DF91CF91B5
:101190001F91FF90EF90089540E068E385E090E0B4
:1011A0000E945C0740E068E384E090E00E945C07F6
:1011B00040E068E383E090E00E945C0780910203D6
:1011C00090910303181619064CF485E08093BE0233
:1011D00045E063E090E080E00E94FC0640E060E3D0
:1011E00081E090E00E945C0740E062E390E080E0F4
:1011F0000E945C0768EE73E080E090E00E948C043F
:1012000090E080E00C94A408CF93DF93EC018091F0
:10121000020390910303181619064CF4C031D1054E
:1012200030F44C2F6AE090E080E00E94FC06D093FE
:101230000102C0930002DF91CF910895CF93DF9315
:10124000D0E0C0E04091090350910A0360910B0384
:1012500070910C030C2E04C07695679557954795B1
:101260000A94D2F760910503809104030E94DD0681
:101270002896C032D10531F761E0809106030E94C3
:101280009D0360E0809106030E949D036091090325
:1012900070910A0380910B0390910C03DF91CF9121
:1012A0000895CF93DF93D0E0C0E0409112035091B6
:1012B000130360911403709115030C2E04C07695EE
:1012C0006795579547950A94D2F760910E038091E0
:1012D0000D030E94DD062896C831D10531F761E083
:1012E00080910F030E949D0360E080910F030E9494
:1012F0009D036091120370911303809114039091E8
:101300001503DF91CF910895CF93DF9310921203CD
:101310001092130310921403109215030E945109A6
:101320001092090310920A0310920B0310920C03FF
:101330000E941E09C5E6D6E08881811104C060E0E4
:1013400089810E949D032D9689E0C735D807A1F7B2
:10135000DF91CF9108950E94BC02882359F081E06B
:1013600080934A0C80934B0C80914C0C90914D0CC7
:101370000C942A2110924B0C60E070E0CB01089590
:101380000E94AB090C94AB09CF92DF92EF92FF92CF
:10139000CF93DF930E94AB096B017C010E94AB09E4
:1013A000AB01BC01E5E6F6E0D0E0C0E082819381CC
:1013B000092E000CAA0BBB0B8C159D05AE05BF05B5
:1013C00009F097C08DE08C9FF0018D9FF00D1124E6
:1013D000EB59F94F808181112BC08181452B462B20
:1013E000472B21F161E00E949D038DE08C9FF0016D
:1013F0008D9FF00D1124EB59F94F8081813011F44C
:101400000E9451098DE08C9FF0018D9FF00D1124F9
:10141000EB59F94F8081823009F071C0DF91CF9193
:10142000FF90EF90DF90CF900C941E0960E0DBCF2F
:10143000813071F5C0901203D0901303E090140333
:10144000F0901503218181E090E0A0E0B0E004C0BD
:10145000880F991FAA1FBB1F2A95D2F7452B462B31
:10146000472B69F08C299D29AE29BF29809312034F
:1014700090931303A0931403B0931503B6CF8095F4
:101480009095A095B0958C219D21AE21BF21EECFE6
:10149000823009F0AACFC0900903D0900A03E090EF
:1014A0000B03F0900C03218181E090E0A0E0B0E01C
:1014B00004C0880F991FAA1FBB1F2A95D2F7452B7E
:1014C000462B472B69F08C299D29AE29BF29809393
:1014D000090390930A03A0930B03B0930C0385CFE9
:1014E00080959095A095B0958C219D21AE21BF212E
:1014F000EECF21963D96CA33D10509F057CFDF9143
:10150000CF91FF90EF90DF90CF9008950E94AB09AC
:10151000603171058105910518F4CB010C94040923
:1015200008950C94AB09CF93DF930E94BC028823EB
:10153000B1F081E080934A0C80934B0CC0914C0C2D
:10154000D0914D0C6AE172E0CE010E946325892B97
:1015500059F481E080939A02DF91CF91089510921F
:101560004B0CD0E0C0E0EECF60E272E0CE010E9412
:101570006325892B39F065E272E0CE010E94632574
:10158000892B51F410929A020E94840990E080E025
:10159000DF91CF910C94A40860E372E0CE010E9429
:1015A0006325892BC9F6EECFFC01808191810097DC
:1015B00011F00C94F0230895FB0101900020E9F74D
:1015C0003197AF01461B570BDC01ED91FC91028076
:1015D000F381E02D19948091000A8823A1F0609195
:1015E000530C8091510C9091520C0E94CB0480912D
:1015F000080A882341F064E372E08091510C9091D5
:10160000520C0E94DC0A1092070A1092000A80E035
:1016100008958F929F92AF92BF92EF92FF920F9395
:101620001F93CF93DF93CDB7DEB7A1970FB6F89492
:10163000DEBF0FBECDBF7C01FA01CB0119A2223063
:1016400008F42AE08E010F5D1F4F822E912CB12CE1
:10165000A12CBF01A50194010E940B23F901CA012D
:101660006A300CF5605DD8016E938D01232B242B1D
:10167000252B79F790E080E0109721F0BD01C7019C
:101680000E94DC0AA1960FB6F894DEBF0FBECDBF54
:10169000DF91CF911F910F91FF90EF90BF90AF908E
:1016A0009F908F900895695CDECFCF92DF92EF928A
:1016B000FF920F931F93CF93DF9377FF1DC06A01B3
:1016C0007B01EC016DE20E94CB048C01442755277D
:1016D000BA014C195D096E097F092AE0CE010E940A
:1016E000090B800F911FDF91CF911F910F91FF90F8
:1016F000EF90DF90CF9008952AE0DF91CF911F9176
:101700000F91FF90EF90DF90CF900C94090BCF9347
:10171000DF932091000A2223A9F0EC016091540C80
:101720008091510C9091520C0E94CB04AE01DD0FC0
:10173000660B770B8091510C9091520CDF91CF91F9
:101740000C94550BDF91CF910895CF939091000A9F
:101750009923A9F0C82F6091540C8091510C90915D
:10176000520C0E94CB044C2FCC0F550B660B770B01
:101770008091510C9091520CCF910C94550BCF91BC
:1017800008959091000A911110C091E09093000A81
:101790009093070A482F50E070E060E02AE08091C3
:1017A000510C9091520C0C94090B0895CF93DF9338
:1017B0009091000A91110AC0EB010E94C10BCE0169
:1017C0000E94D204DF91CF910C94EB0A80E0DF916C
:1017D000CF91089567EA71E083E00C94D60BCF9225
:1017E000DF92EF92FF920F931F93CF93DF930E94AC
:1017F000BC02882309F472C081E080934A0C809374
:101800004B0CC0914C0CD0914D0C67E372E0CE01B3
:101810000E946325892B09F066C080E00E94C10BFD
:1018200062E370E080E090E00E948C0482E193E04B
:101830000E94D20462E370E080E090E00E948C0499
:101840008BEE92E00E94D20462E370E080E090E0D0
:101850000E948C0486ED92E00E94D20462E370E064
:1018600080E090E00E948C0482E090E00E94870B70
:1018700081E090E00E94870B8EEA92E00E94D20401
:1018800062E370E080E090E00E948C0485EA92E0E0
:101890000E94D20462E370E080E090E00E948C0439
:1018A0008FE892E00E94D20462E370E080E090E072
:1018B0000E948C0482E892E00E94D20462E370E00D
:1018C00080E090E00E948C04DF91CF911F910F91F6
:1018D000FF90EF90DF90CF900C94EB0A10924B0C9E
:1018E000D0E0C0E092CF6CE372E0CE010E946325AD
:1018F0008C01892B09F0A8C080E00E94C10B88E709
:1019000092E00E94D20481E090E00E94870B0E9446
:10191000EB0A80E393E00E94340681E293E00E94A8
:1019200034060E9412048DE0C82EDD24D394C09E9C
:10193000E001C19ED00D1124C15CDC4F8A819B81E6
:101940009C01205D37402C32314088F5C8010E944F
:101950009A0681111EC088E00E94C10B8A819B817A
:101960000E94870B8A850E94A50B0E94EB0A1C86A9
:101970000F5F1F4F0E331105D4F280E00E94C10BA0
:101980008EE692E00E94D20482E090E00E94870BF3
:101990009BCF88E00E94C10B8A819B810E94870BAC
:1019A0008B850E94A50B0E94EB0ADC86E1CF8C5F41
:1019B000984088369105E0F678018FEFE81AF80A2A
:1019C000C8010E949A06CE9C8001CF9C100D112464
:1019D000811112C088E00E94C10B8A819B810E9404
:1019E000870B8A850E94A50B0E94EB0A1C86F801D2
:1019F000E15CFC4FD48618C0C7010E949A06811191
:101A000015C088E00E94C10B015C1C4FF801828167
:101A100093810E94870BF80182850E94A50B0E948A
:101A2000EB0AF8011486DC868701A2CF88E00E94C9
:101A3000C10B8A819B810E94870B8B850E94A50B1D
:101A40000E94EB0ADC86D3CF66E472E0CE010E94EE
:101A50006325892B59F50E94BF0460939B02709304
:101A60009C0280939D0290939E0280E00E94C10B95
:101A700089E692E00E94D2040E94AB096B017C01CE
:101A80008091000A882309F41FCF6091540C809143
:101A9000510C9091520C0E94CB04B701A601809189
:101AA000510C9091520C0E94550B0ECF60E372E0E6
:101AB000CE010E946325892B71F40E94840990E075
:101AC00080E0DF91CF911F910F91FF90EF90DF9019
:101AD000CF900C94A4086BE472E0CE010E946325C1
:101AE000892B91F568E072E081E00E94D60B62E3F9
:101AF00070E080E090E00E948C0467EB71E081E090
:101B00000E94D60B62E370E080E090E00E948C04BB
:101B10008091000A811118C00E94C10B8091000AB7
:101B2000882309F4D1CE6091540C8091510C90918E
:101B3000520C0E94CB046BE472E08091510C9091A6
:101B4000520C0E94DC0AC0CEDF91CF911F910F9101
:101B5000FF90EF90DF90CF900895EF92FF920F9358
:101B60001F93CF93DF93EC017B01198218821B82B4
:101B70001A821D821C82FB0101900020E9F7319737
:101B80008F01061B170BB8016F5F7F4F90E080E05D
:101B90000E9479240097B9F0998388831B830A8374
:101BA0002C813D81232B11F4FC0110821D830C83B9
:101BB000B70188819981DF91CF911F910F91FF909B
:101BC000EF900C946C2588819981009711F00E9408
:101BD000F023198218821D821C821B821A82DF91D7
:101BE000CF911F910F91FF90EF9008958F929F9248
:101BF000AF92BF92CF92DF92EF92FF920E94AB0919
:101C00004B015C010E94AB090E94AB096B017C0196
:101C10000E94BC02882311F181E080934A0C8093DA
:101C20004B0C70E060E080914C0C90914D0C0E9448
:101C3000AE1F24E682169104A104B104A9F025E6A2
:101C400082169104A104B10441F1FF90EF90DF905E
:101C5000CF90BF90AF909F908F90089510924B0CB3
:101C600060E070E0CB01E5CF22E0C216D104E104D0
:101C7000F10451F4FF90EF90DF90CF90BF90AF90C0
:101C80009F908F900C940E08CD28CE28CF28E9F68F
:101C900060E070E080E89FEBEDCF22E0C216D10457
:101CA000E104F10451F4FF90EF90DF90CF90BF90EA
:101CB000AF909F908F900C947807CD28CE28CF2896
:101CC00021F660E070E080E89FEBEDCF1F920F926D
:101CD0000FB60F9211242F933F938F939F93AF933F
:101CE000BF938091A4029091A502A091A602B09109
:101CF000A7023091A30223E0230F2D3758F5019658
:101D0000A11DB11D2093A3028093A4029093A5026C
:101D1000A093A602B093A7028091A8029091A90275
:101D2000A091AA02B091AB020196A11DB11D8093B2
:101D3000A8029093A902A093AA02B093AB02BF910C
:101D4000AF919F918F913F912F910F900FBE0F9068
:101D50001F90189526E8230F0296A11DB11DD2CF22
:101D60001F920F920FB60F9211240BB60F922F9362
:101D70003F934F935F936F937F938F939F93AF9313
:101D8000BF93EF93FF9383E699E00E947405FF9160
:101D9000EF91BF91AF919F918F917F916F915F91E3
:101DA0004F913F912F910F900BBE0F900FBE0F9050
:101DB0001F9018951F920F920FB60F9211240BB619
:101DC0000F922F938F939F93EF93FF93E09173095B
:101DD000F09174098081E0917909F0917A0982FD8E
:101DE0001DC0908180917C098F5F8F7320917D0948
:101DF000821741F0E0917C09F0E0ED59F64F958FA4
:101E000080937C09FF91EF919F918F912F910F907B
:101E10000BBE0F900FBE0F901F9018958081F2CFD0
:101E20002F923F924F925F926F927F928F929F92EA
:101E3000AF92BF92CF92DF92EF92FF920F931F93D8
:101E4000CF93DF93109266091092650988EE93E0B4
:101E5000A0E0B0E08093670990936809A0936909B6
:101E6000B0936A098CE092E09093640980936309CF
:101E700085EC90E09093700980936F0984EC90E07A
:101E8000909372098093710980EC90E090937409AB
:101E90008093730981EC90E09093760980937509A3
:101EA00082EC90E0909378098093770986EC90E03B
:101EB00090937A098093790910927C0910927D0998
:101EC00010927E0910927F091092570C1092560CB6
:101ED00083E699E09093520C8093510C1092080A7B
:101EE0008CE28093540C8BE38093530C8FE28093AD
:101EF000550C80E48093030A8FE38093040A1092C8
:101F0000020A10924D0C10924C0C10924F0C109231
:101F10004E0C81E080934A0CE8E5FCE08CEB9CE001
:101F2000119211928E179F07D9F71092070A62E556
:101F300072E08DE599E00E94AD0D63E772E087E500
:101F400099E00E94AD0D1092650687E1D82ED092DF
:101F500066068FE194E0909368068093670666E3D7
:101F600072E089E696E00E94AD0DC1E0C0936F0675
:101F700010927006DFEFD09371061092720696E110
:101F8000292E2092730680E294E090937506809348
:101F9000740666E372E086E796E00E94AD0DC0939A
:101FA0007C0610927D06D0937E0610927F0625E176
:101FB000C22EC092800681E294E0909382068093C4
:101FC000810666E372E083E896E00E94AD0DC0935F
:101FD000890610928A06D0938B0612E010938C0625
:101FE00036E0932E90928D0680E094E090938F06D9
:101FF00080938E0666E372E080E996E00E94AD0D64
:10200000C093960610929706D0939806109399065F
:1020100087E080939A0681E094E090939C068093F9
:102020009B0666E372E08DE996E00E94AD0DC093D9
:10203000A3061092A406D093A506C093A60642E17B
:10204000342E3092A70682E094E09093A906809304
:10205000A80666E372E08AEA96E00E94AD0DC0939E
:10206000B0061092B106D093B206C093B30653E106
:10207000A52EA092B40687EF93E09093B6068093C6
:10208000B50666E372E087EB96E00E94AD0DC09363
:10209000BD061092BE06D093BF06C093C00684E171
:1020A0008093C10686EF93E09093C3068093C206A7
:1020B00066E372E084EC96E00E94AD0DC093CA0620
:1020C0001092CB06D093CC06C093CD06C092CE061C
:1020D00085EF93E09093D0068093CF0666E372E09D
:1020E00081ED96E00E94AD0DC093D7061092D80600
:1020F000D093D906C093DA062092DB0684EF93E0F2
:102100009093DD068093DC0666E372E08EED96E048
:102110000E94AD0DC093E4061092E506D093E6064A
:10212000C093E706D092E8068EE194E09093EA0629
:102130008093E90666E372E08BEE96E00E94AD0DB7
:10214000C093F1061092F206D093F306C093F40602
:1021500088E08093F5068CE194E09093F7068093F5
:10216000F60666E372E088EF96E00E94AD0DC0933C
:10217000FE061092FF06D0930007C093010769E0A6
:10218000862E809202078BEF93E090930407809352
:10219000030766E372E085E097E00E94AD0DC0930F
:1021A0000B0710920C07D0930D07C0930E077AE02F
:1021B000472E40920F0789EF93E090931107809389
:1021C000100766E372E082E197E00E94AD0DC093D4
:1021D000180710921907D0931A07C0931B078BE0BA
:1021E00080931C078DE194E090931E0780931D0758
:1021F00066E372E08FE197E00E94AD0DC093250782
:1022000010922607D0932707C0932807ECE05E2E94
:10221000509229078BE194E090932B0780932A0733
:1022200066E372E08CE297E00E94AD0DC093320746
:1022300010923307D0933407C0933507FDE07F2E0B
:10224000709236078AEF93E09093380780933707B0
:1022500066E372E089E397E00E94AD0DC0933F070B
:1022600010924007D0934107C0934207AEE0BA2EC8
:10227000B092430788EF93E090934507809344071B
:1022800066E372E086E497E00E94AD0DC0934C07D0
:1022900010924D07D0934E07C0934F07BFE06B2EAF
:1022A0006092500789EE93E0909352078093510714
:1022B00066E372E083E597E00E94AD0DC093590795
:1022C00010925A07D0935B07C0935C0710925D078A
:1022D00088EE93E090935F0780935E0766E372E079
:1022E00080E697E00E94AD0DC093660710926707E5
:1022F000D0936807C0936907C0936A0787E094E0AA
:1023000090936C0780936B0766E372E08DE697E02D
:102310000E94AD0DC093730710927407D093750798
:10232000C09376071093770788E094E0909379073D
:102330008093780766E372E08AE797E00E94AD0D2C
:10234000C093800710928107D0938207C0938307C0
:1023500003E00093840786E094E0909386078093DF
:10236000850766E372E087E897E00E94AD0DC093B1
:102370008D0710928E07D0938F07C093900784E04B
:10238000E82EE092910784E094E090939307809385
:10239000920766E372E084E997E00E94AD0DC09376
:1023A0009A0710929B07D0939C07C0939D0795E0D6
:1023B000F92EF0929E0783E094E09093A00780931B
:1023C0009F0766E372E081EA97E00E94AD0DC0933B
:1023D000A7071092A807D093A907C093AA079092C5
:1023E000AB0785E094E09093AD078093AC0766E37C
:1023F00072E08EEA97E00E94AD0DC093B407109290
:10240000B507D093B6071093B70788E18093B80754
:1024100080EF93E09093BA078093B90766E372E088
:102420008BEB97E00E94AD0DC093C1071092C207DD
:10243000D093C3071093C40789E18093C5078AE04E
:1024400094E09093C7078093C60766E372E088EC38
:1024500097E00E94AD0DC093CE071092CF07D093A6
:10246000D0071093D1078AE18093D20789E094E0E6
:102470009093D4078093D30766E372E085ED97E0ED
:102480000E94AD0DC093DB071092DC07D093DD07EF
:102490001093DE078DE18093DF0784E194E0909351
:1024A000E1078093E00766E372E082EE97E00E9426
:1024B000AD0DC093E8071092E907D093EA07109397
:1024C000EB078EE18093EC0783E194E09093EE07B5
:1024D0008093ED0766E372E08FEE97E00E94AD0D0A
:1024E000C093F5071092F607D093F7071093F807FB
:1024F0008BE18093F90782E194E09093FB0780934E
:10250000FA0766E372E08CEF97E00E94AD0DC0938E
:10251000020810920308D0930408109305088CE178
:102520008093060881E194E090930808809307085F
:1025300066E372E089E098E00E94AD0DC0930F0859
:1025400010921008D0931108109312088FE1809315
:10255000130883E294E0909315088093140866E3CF
:1025600072E086E198E00E94AD0DC0931C081092C5
:102570001D08D0931E0810931F0880E18093200847
:1025800081EF93E0909322088093210866E372E044
:1025900083E298E00E94AD0DC093290810922A08AA
:1025A000D0932B0810932C0881E180932D088CE0A8
:1025B00094E090932F0880932E0866E372E080E306
:1025C00098E00E94AD0DC093360810923708D09362
:1025D00038081093390830923A088BE094E09093D1
:1025E0003C0880933B0866E372E08DE398E00E942C
:1025F000AD0DC093430810924408D0934508109342
:102600004608A092470888E194E090934908809397
:10261000480866E372E08AE498E00E94AD0DC0933A
:10262000500810925108D09352081093530884E137
:102630008093540882EF93E0909356088093550856
:1026400066E372E087E598E00E94AD0DC0935D08F7
:1026500010925E08D0935F0810936008C0926108E2
:1026600083EF93E0909363088093620866E372E0DF
:1026700084E698E00E94AD0DC0936A0810926B0842
:10268000D0936C0810936D0820926E088CEE93E046
:102690009093700880936F0866E372E081E798E09A
:1026A0000E94AD0DC093770810927808D0937908F6
:1026B00010937A08D0927B088DEE93E090937D087A
:1026C00080937C0866E372E08EE798E00E94AD0D8F
:1026D000C093840810928508D093860810938708C9
:1026E000609288088DE094E090938A08809389082E
:1026F00066E372E08BE898E00E94AD0DC09391080C
:1027000010929208D09393081093940880929508A1
:1027100082E294E0909397088093960866E372E0D3
:1027200088E998E00E94AD0DC0939E0810929F0822
:10273000D093A0081093A1084092A2088FE094E0E3
:102740009093A4088093A30866E372E085EA98E07A
:102750000E94AD0DC093AB081092AC08D093AD08A9
:102760001093AE088BE08093AF0880E194E09093E3
:10277000B1088093B00866E372E082EB98E00E94B3
:10278000AD0DC093B8081092B908D093BA08109351
:10279000BB085092BC088FEE93E09093BE088093E4
:1027A000BD0866E372E08FEB98E00E94AD0DC09328
:1027B000C5081092C608D093C7081093C808709235
:1027C000C90886E194E09093CB088093CA0866E339
:1027D00072E08CEC98E00E94AD0DC093D20810928C
:1027E000D308D093D4081093D508B092D60885E1C9
:1027F00094E09093D8088093D70866E372E089ED5F
:1028000098E00E94AD0DC093DF081092E008D093CD
:10281000E1081093E2086092E3088EEE93E0909353
:10282000E5088093E40866E372E086EE98E00E9493
:10283000AD0DC093EC081092ED08D093EE08109304
:10284000EF081092F0088EE094E09093F2088093E5
:10285000F10866E372E083EF98E00E94AD0DC0934B
:10286000F9081092FA08D093FB081093FC08C09363
:10287000FD088AEE93E09093FF088093FE0866E3DC
:1028800072E080E099E00E94AD0DC09306091092BD
:102890000709D09308091093090910930A0987E1E1
:1028A00094E090930C0980930B0966E372E08DE04D
:1028B00099E00E94AD0DC093130910921409D093B2
:1028C000150910931609009317098BEE93E0909366
:1028D00019098093180966E372E08AE199E00E9481
:1028E000AD0DC093200910922109D09322091093B5
:1028F0002309E09224098CEF93E0909326098093BA
:10290000250966E372E087E299E00E94AD0DC0936D
:102910002D0910922E09D0932F0910933009F092AF
:1029200031098DEF93E0909333098093320966E388
:1029300072E084E399E00E94AD0DC0933A091092D1
:102940003B09D0933C09C0933D0980E180933E0947
:102950008EEF93E09093400980933F0966E372E025
:1029600081E499E00E94AD0DC09347091092480997
:10297000D0934909C0934A0981E180934B098FEFB5
:1029800093E090934D0980934C0966E372E08EE4E6
:1029900099E00E94AD0DC093540910925509D0934F
:1029A0005609C0933F0380E18093400388E398E099
:1029B000909342038093410366E372E083E493E0E3
:1029C0000E94AD0DC093490310924A03D0934B036C
:1029D000C0934C0381E180934D038AE498E0909387
:1029E0004F0380934E0366E372E080E593E00E941C
:1029F000AD0DC093560310925703D0935803C09364
:102A0000590330925A0386E398E090935C038093D5
:102A10005B0366E372E08DE593E00E94AD0DC09329
:102A2000630310926403D0936503C0936603A0927E
:102A300067038CE498E0909369038093680366E3EE
:102A400072E08AE693E00E94AD0DC093700310928D
:102A50007103D0937203C093730384E18093740372
:102A600081ED97E0909376038093750366E372E0BF
:102A700087E793E00E94AD0DC0937D0310927E0323
:102A8000D0937F03C09380038092810389E498E010
:102A9000909383038093820366E372E084E893E07B
:102AA0000E94AD0DC0938A0310928B03D0938C03C8
:102AB000C0938D0340928E038AE398E09093900335
:102AC00080938F0366E372E081E993E00E94AD0D8D
:102AD000C093970310929803D0939903C0939A03DD
:102AE0008BE080939B038BE498E090939D0380930D
:102AF0009C0366E372E08EE993E00E94AD0DC09303
:102B0000A4031092A503D093A603C093A7035092E9
:102B1000A80383E498E09093AA038093A90366E353
:102B200072E08BEA93E00E94AD0DC093B103109266
:102B3000B203D093B303C093B4037092B5038BE395
:102B400098E09093B7038093B60366E372E088EB56
:102B500093E00E94AD0DC093BE031092BF03D093CB
:102B6000C003C093C103B092C20382E498E0909383
:102B7000C4038093C30366E372E085EC93E00E9494
:102B8000AD0DC093CB031092CC03D093CD03C09373
:102B9000CE036092CF0380E498E09093D1038093BA
:102BA000D00366E372E082ED93E00E94AD0DC09326
:102BB000D8031092D903D093DA03C093DB031092A9
:102BC000DC0387E398E09093DE038093DD0366E304
:102BD00072E08FED93E00E94AD0DC093E50310927B
:102BE000E603D093E703C093E803C093E90380EDC5
:102BF00097E09093EB038093EA0366E372E08CEE38
:102C000093E00E94AD0DC093F2031092F303D093B2
:102C1000F403C093F5031093F6038CE398E09093CC
:102C2000F8038093F70366E372E089EF93E00E9474
:102C3000AD0DC093FF0310920004D0930104C09324
:102C400002040093030484E498E0909305048093C5
:102C5000040466E372E086E094E00E94AD0DC09348
:102C60000C0410920D04D0930E04C0930F04E09254
:102C7000100489E398E0909312048093110466E3B2
:102C800072E083E194E00E94AD0DC09319041092AC
:102C90001A04D0931B04C0931C04F0921D0485E316
:102CA00098E090931F0480931E0466E372E080E234
:102CB00094E00E94AD0DC093260410922704D09397
:102CC0002804C093290490922A0484E398E0909306
:102CD0002C0480932B0466E372E08DE294E00E9462
:102CE000AD0DC093330410923404D0933504C093D7
:102CF000360487E08093370481E498E090933904A8
:102D00008093380466E372E08AE394E00E94AD0D9C
:102D1000C093400410924104D093420410934304A2
:102D2000209244048AE998E09093460480934504F5
:102D300066E372E087E494E00E94AD0DC0934D0419
:102D400010924E04D0934F041093500430925104CB
:102D500088E998E0909353048093520466E372E00C
:102D600084E594E00E94AD0DC0935A0410925B0478
:102D7000D0935C0410935D04A0925E0489E998E00E
:102D80009093600480935F0466E372E081E694E0D0
:102D90000E94AD0DC093670410926804D09369043B
:102DA00010936A0488E080936B0486E498E0909323
:102DB0006D0480936C0466E372E08EE694E00E94FA
:102DC000AD0DC093740410927504D09376041093E3
:102DD00077048092780485E498E090937A04809355
:102DE000790466E372E08BE794E00E94AD0DC09336
:102DF000810410928204D09383041093840410926F
:102E0000850482ED97E0909387048093860466E3BF
:102E100072E088E894E00E94AD0DC0938E04109299
:102E20008F04D093900410939104C09392048EE386
:102E300098E0909394048093930466E372E085E9AC
:102E400094E00E94AD0DC0939B0410929C04D0931B
:102E50009D0410939E0410939F048FE398E0909339
:102E6000A1048093A00466E372E082EA94E00E94E9
:102E7000AD0DC093A8041092A904D093AA04109396
:102E8000AB040093AC048DE398E09093AE04809380
:102E9000AD0466E372E08FEA94E00E94AD0DC0934A
:102EA000B5041092B604D093B7041093B804F0920E
:102EB000B90487E498E09093BB048093BA0466E376
:102EC00072E08CEB94E00E94AD0DC093C2041092AE
:102ED000C304D093C4041093C504E092C60488E4EC
:102EE00098E09093C8048093C70466E372E089EC8D
:102EF00094E00E94AD0DC093CF041092D004D09303
:102F0000D1041093D2049092D30483ED97E0909370
:102F1000D5048093D40466E372E086ED94E00E94C9
:102F2000AD0DC093DC041092DD04D093DE04109349
:102F3000DF0487E08093E00484ED97E09093E2045F
:102F40008093E10466E372E083EE94E00E94AD0DAD
:102F5000C093E9041092EA04D093EB040093EC04CC
:102F6000F092ED048BE998E09093EF048093EE04E7
:102F700066E372E080EF94E00E94AD0DC093F6042A
:102F80001092F704D093F8040093F904B092FA0475
:102F90008CE998E09093FC048093FB0466E372E074
:102FA0008DEF94E00E94AD0DC093030510920405CF
:102FB000D0930505C093060588E0809307058DE44E
:102FC00098E0909309058093080566E372E08AE033
:102FD00095E00E94AD0DC093100510921105D0939D
:102FE00012051092130588E28093140520E6A22EA4
:102FF00029E0B22EB0921605A092150566E372E0A4
:1030000087E195E00E94AD0D10921D05C0931E054D
:10301000D0931F05109220058AE280932105B0927B
:103020002305A092220566E372E084E295E00E9407
:10303000AD0D10932A05C0932B05D0932C0510934A
:103040002D0540922E0531E6A32E39E0B32EB09225
:103050003005A0922F0566E372E081E395E00E94BF
:10306000AD0D10923705C0933805D09339051093F4
:103070003A0550923B05B0923D05A0923C0566E3AF
:1030800072E08EE395E00E94AD0D10934405C0936D
:103090004505D0934605109347057092480542E6D2
:1030A000A42E49E0B42EB0924A05A092490566E3E9
:1030B00072E08BE495E00E94AD0D10925105C09333
:1030C0005205D09353051093540560925505B09264
:1030D0005705A092560566E372E088E595E00E94E8
:1030E000AD0D10935E05C0935F05D0936005C0934E
:1030F0006105C092620553E6A52E59E0B52EB09247
:103100006405A092630566E372E085E695E00E949F
:10311000AD0D10926B05C0936C05D0936D05C093F7
:103120006E05D0926F05B0927105A092700566E3AE
:1031300072E082E795E00E94AD0D10937805C09390
:103140007905D0937A0510937B0581E180937C0506
:103150006CEFA62E68E0B62EB0927E05A0927D059B
:1031600066E372E08FE795E00E94AD0D1092850551
:10317000C0938605D09387051093880580E18093DE
:103180008905B0928B05A0928A0566E372E08CE80F
:1031900095E00E94AD0D10939205C0939305D093D6
:1031A00094051093950584E1809396057DEFA72EF5
:1031B00078E0B72EB0929805A092970566E372E08A
:1031C00089E995E00E94AD0D10929F05C093A0057E
:1031D000D093A1051093A205C092A305B092A505B6
:1031E000A092A40566E372E086EA95E00E94AD0D28
:1031F0001093AC05C093AD05D093AE051093AF0509
:10320000D092B005EEEFCE2EE8E0DE2ED092B205E1
:10321000C092B10566E372E083EB95E00E94AD0DCC
:103220001092B905C093BA05D093BB050093BC05B5
:103230001092BD05D092BF05C092BE0566E372E054
:1032400080EC95E00E94AD0D1093C605C093C705B4
:10325000D093C8050093C9051093CA05CC24CA941D
:10326000F8E0DF2ED092CC05C092CB0566E372E089
:103270008DEC95E00E94AD0D1092D305C093D4055E
:10328000D093D5050093D605C093D705D092D90524
:10329000C092D80566E372E08AED95E00E94AD0D1C
:1032A0001093E005C093E105D093E2050093E30598
:1032B0000093E405C12CA9E0DA2ED092E605C09275
:1032C000E50566E372E087EE95E00E94AD0D109291
:1032D000ED05C093EE05D093EF050093F005E09265
:1032E000F105D092F305C092F20566E372E084EF37
:1032F00095E00E94AD0D1093FA05C093FB05D093A5
:10330000FC050093FD059092FE05B3E0CB2EB9E0DD
:10331000DB2ED0920006C092FF0566E372E081E0EA
:1033200096E00E94AD0D10920706C0930806D09358
:10333000090600930A0687E080930B06D0920D06DB
:10334000C0920C0666E372E08EE096E00E94AD0D3E
:1033500010931406C0931506D09316060093170613
:103360008092180684E0C82E89E0D82ED0921A06E2
:10337000C092190666E372E08BE196E00E94AD0D03
:1033800010922106C0932206D093230600932406B0
:1033900088E080932506D0922706C092260666E331
:1033A00072E088E296E00E94AD0D10932E06C09365
:1033B0002F06D09330060093310670923206CC244B
:1033C000C39499E0D92ED0923406C092330666E3B6
:1033D00072E085E396E00E94AD0D10923B06C0932B
:1033E0003C06D0933D0600933E0650923F06D09295
:1033F0004106C092400666E372E082E496E00E94D5
:10340000AD0D10934806C0934906D0934A06009329
:103410004B0640924C0622E0C22E29E0D22ED092DA
:103420004E06C0924D0666E372E08FE496E00E947D
:10343000AD0D10925506C0935606D09357060093D3
:1034400058068BE080935906D0925B06C0925A06CC
:1034500066E372E08CE596E00E94AD0D1093620683
:10346000C0936306D093640688E190E0909335039F
:1034700080933403F092360310923703109238038E
:103480001092390310923A0310923B0310923C03BE
:1034900010923D0310923E039093260380932503E0
:1034A000F0922703109228031092290310922A0306
:1034B00010922B0310922C0310922D0310922E03C6
:1034C00010922F0320E130E030931B0320931A0366
:1034D000F0921C0310921E0310921D031092200301
:1034E00010921F0390931103809310031092120304
:1034F00010921303109214031092150380E290E0CF
:1035000090930803809307031092090310920A0313
:1035100010920B0310920C03C6E0D0E0D093FD0292
:10352000C093FC0285E090E09093FF028093FE023E
:1035300084E090E0909301038093000381E090E0A9
:10354000909303038093020361E086E00E94CB0323
:1035500061E08091FE020E94CB0361E08091000354
:103560000E94CB0361E0809100030E949D03D093F1
:10357000FD02C093FC02ECEBF2E0119282E0EC3F22
:10358000F807D9F7D0E0C0E08091020390910303DF
:10359000C817D9073CF540E06FE0CE010E94FC0659
:1035A0008091020390910303C817D9072CF447E0D8
:1035B0006BE0CE010E94FC0640E069E0CE010E9473
:1035C000FC06CE010E94A40880910203909103039F
:1035D000C817D9072CF440E06CE0CE010E94FC062D
:1035E0002196D2CFDF91CF911F910F91FF90EF9055
:1035F000DF90CF90BF90AF909F908F907F906F9013
:103600005F904F903F902F900895789484B582609A
:1036100084BD84B5816084BD85B5826085BD85B576
:10362000816085BD80916E00816080936E001092F4
:10363000810080918100826080938100809181006F
:103640008160809381008091800081608093800000
:103650008091B10084608093B1008091B00081605E
:103660008093B0008091910082608093910080915E
:10367000910081608093910080919000816080939F
:1036800090008091A10082608093A1008091A100B0
:1036900081608093A1008091A00081608093A00050
:1036A00080912101826080932101809121018160BC
:1036B000809321018091200181608093200180917D
:1036C0007A00846080937A0080917A00826080938F
:1036D0007A0080917A00816080937A0080917A00EC
:1036E000806880937A001092C1000E94BF046093AA
:1036F0009B0270939C0280939D0290939E02609324
:103700009F027093A0028093A1029093A20280E294
:103710008093300361E00E94CB0382E28093320306
:1037200060E00E94CB0381E28093330361E00E945A
:10373000CB0385E28093210361E00E94CB0387E203
:103740008093230360E00E94CB0386E280932403EE
:1037500061E00E94CB038BE28093160361E00E943C
:10376000CB038DE28093180360E00E94CB038CE2D0
:103770008093190361E00E94CB038AE080930D03DC
:1037800061E00E94CB038BE080930E0361E00E9416
:10379000CB038CE080930F0361E00E94CB030E9477
:1037A000510989E08093040361E00E94CB0387E024
:1037B0008093050361E00E94CB0388E080930603B9
:1037C00061E00E94CB030E941E0980910203909148
:1037D00003031816190634F441E06CE090E080E031
:1037E0000E94FC0640910002509101028091020368
:1037F000909103031816190644F44031510528F43A
:103800006AE090E080E00E94FC06CFE3D3E005E6AA
:1038100016E08881811104C062E089810E94CB0397
:103820002D960C171D07A9F7C5E6D6E007E519E0A8
:103830008881811104C061E089810E94CB032D96AB
:103840000C171D07A9F7E0917309F091740982E044
:103850008083E0916F09F09170091082E091710905
:10386000F091720980E1808310927B09E0917709E1
:10387000F091780986E08083E0917509F0917609EE
:10388000808180618083E0917509F0917609808163
:1038900088608083E0917509F09176098081806865
:1038A0008083E0917509F091760980818F7D808316
:1038B00067E173E083E00E94D60B8FEE9BE090936C
:1038C000590C8093580C83E99AE090935D0C809397
:1038D0005C0C8AEE9BE090935F0C80935E0C80EC16
:1038E00099E09093630C8093620C84EC99E0909340
:1038F000650C8093640C86EF9DE09093670C809339
:10390000660C86E89AE090936F0C80936E0C81E9C8
:103910009AE09093730C8093720CCC24CA94DC2CA4
:103920007601C0921203D0921303E0921403F09236
:1039300015030E945109C0920903D0920A03E09234
:103940000B03F0920C030E941E0961E08091660651
:103950000E949D0361E0809173060E949D0361E0D7
:10396000809180060E949D030E94CC081092120351
:103970001092130310921403109215030E94510920
:103980001092090310920A0310920B0310920C0379
:103990000E941E0960E0809166060E949D0360E01F
:1039A000809173060E949D0360E0809180060E94D2
:1039B0009D03662463944CE0242E312C58E0452E60
:1039C000512C64E0A62EB12C7DE0772E0E94BF041E
:1039D00000919F021091A0022091A1023091A202B9
:1039E000601B710B820B930B63337105810591058D
:1039F00008F4BCC080E393E00E94340681E293E0C7
:103A00000E9434060E94120480919A028823C9F110
:103A1000D0E0C0E07C9E80017D9E100D1124015CF1
:103A20001C4FD80112968D919C91805D97408C32ED
:103A3000914008F061C1CE010E949A06F8012485E8
:103A4000022E000C330B8217130609F455C1CE0168
:103A50000E949A06811194C188E00E94C10BF8016E
:103A6000828193810E94870BD8011A968C910E94C3
:103A7000A50B0E94EB0AF80114862196CE33D105DE
:103A80004CF280913B0390913C03A0913D03B09197
:103A90003E03A4FD05C080912C0386FF0E94CC0844
:103AA00080913B0390913C03A0913D03B0913E0374
:103AB000A4FD16C080912C0380FD12C080910002ED
:103AC00090910102843091050CF0C0C1B0920102C6
:103AD000A092000280910002909101020E940409CC
:103AE00080913B0390913C03A0913D03B0913E0334
:103AF000A4FD32C080912C0387FD2EC0C5E0D0E02C
:103B000061E0809166060E949D0361E080917306EA
:103B10000E949D0361E0809180060E949D0364E6FF
:103B200070E080E090E00E948C0460E08091660686
:103B30000E949D0360E0809173060E949D0360E0F7
:103B4000809180060E949D0364E670E080E090E032
:103B50000E948C042197A1F60E94BF0460939F02EB
:103B60007093A0028093A1029093A2020E94BF04CE
:103B700000919B0210919C0220919D0230919E0227
:103B8000601B710B820B930B613E7349844091055E
:103B900080F090E080E00E94A4080E9484090E94C6
:103BA000BF0460939B0270939C0280939D0290934C
:103BB0009E028091070A8111A6C18091510C9091BB
:103BC000520CDC01ED91FC910084F185E02D1995FA
:103BD000892B09F498C18091510C9091520CDC0111
:103BE000ED91FC910084F185E02D1995E12C22E006
:103BF000F22E8115924064F48091510C9091520CF8
:103C0000DC01ED91FC910084F185E02D19957C019A
:103C1000C091510CD091520C99E4892E9AE0992EC2
:103C2000640110E000E0E016F10609F031C1D0E0D7
:103C3000C0E0EC16FD0609F4BCCFF40191914F01F0
:103C40001092490C3091550C2091060A9093060A67
:103C5000931304C0921302C01092060A8091020AC4
:103C6000E82FF0E04091530CE050F64F941333C12D
:103C7000321709F430C11186882329F0F1E0F0935E
:103C8000490C1092060A1092020A10924D0C1092E2
:103C90004C0C10924F0C10924E0C21E020934A0CC9
:103CA0001091490C113009F02CC10E94BC028823EC
:103CB00009F41BC110934A0C10934B0C80914C0CCF
:103CC00090914D0C0E940C218093010A823308F0E0
:103CD00011C120914B0C222309F40CC1FC01FF27D8
:103CE000EE0FFF1FE85AF34F0190F081E02D30975F
:103CF00009F400C1199505C17C9EC0017D9E900DFF
:103D000011249C01215C3C4F7901D90112968D91BF
:103D10009C918C5F98408836910508F0AECE8E015C
:103D20000F5F1F4FCE010E949A06F7012485022ED5
:103D3000000C330B82171306B1F1CE010E949A06D4
:103D4000811145C088E00E94C10B7C9EC0017D9E10
:103D5000900D1124EC01C15CDC4F8A819B810E9493
:103D6000870B8A850E94A50B0E94EB0A1C86709E19
:103D7000F001719EF00D1124E15CFC4F648625C0BA
:103D800088E00E94C10BD80112968D919C910E94EF
:103D9000870BF80183850E94A50B0E94EB0AD801CE
:103DA0001C966C926ACEC8010E949A06709EF00121
:103DB000719EF00D1124E15CFC4F2485022E000C55
:103DC000330B8217130609F0B8CFE80156CEC801AD
:103DD0000E949A06811124C088E00E94C10B709E47
:103DE000C001719E900D11249C01215C3C4F790112
:103DF000D90112968D919C910E94870BF7018285C3
:103E00000E94A50B0E94EB0A7C9EF0017D9EF00DA6
:103E10001124E15CFC4F6486D7011C961C92D5CF1F
:103E200088E00E94C10B7C9EC0017D9E900D1124F4
:103E3000EC01C15CDC4F8A819B810E94870B8B85E2
:103E40000E94A50B0E94EB0A6C8691CF88309105E9
:103E50002CF450920102409200023CCE8C3091052D
:103E60002CF4309201022092000234CE8F30910562
:103E70003CF4EFE0F0E0F0930102E09300022ACE80
:103E80000F9709F027CE109201021092000222CE65
:103E90000E94BF04688779878A879B87E881F981B8
:103EA0000284F385E02DCE01199597FF2FC00E9463
:103EB000BF04288539854A855B85621B730B840B9B
:103EC000950B2C813D814E815F81621773078407BA
:103ED000950720F3ACCE91878F5F8093020A909173
:103EE000040A891708F0CFCEDBCE10924B0C90E07D
:103EF00080E0EACEE091560CF091570C309709F033
:103F0000F9CE219696CE0E94030660CDD6018D9300
:103F10006D010F5F1F4F87CECF93DF93C5E6D6E0CD
:103F20002D97CE0104960E94D40A83E0CF33D807A0
:103F3000B9F7C7E5D9E02D97CE0104960E94D40ABF
:103F400086E0C536D807B9F787E599E00E94D40A1C
:103F50008DE599E0DF91CF910C94D40A8F929F92D6
:103F6000AF92BF92CF92DF92EF92FF920F931F9387
:103F7000CF93DF935C017B016115710519F0DB01C3
:103F80008D939C9385010F5F1F4FF501D0818D2F7D
:103F900090E00E9451216C01892BB9F5DD32B9F511
:103FA0000F5F1F4FD5011196DC91C1E05801F1E080
:103FB000AF1AB10843E050E064E771E0C5010E9428
:103FC0005A21892B69F5680182E0C80ED11C45E0B1
:103FD00050E06FE671E0C6010E945A21892B21F45E
:103FE000680197E0C90ED11CE114F10419F0D70162
:103FF000CD92DC9260E070E080E89FEFC111FFC0DD
:1040000060E070E080E89FE7FAC05801BBCFDB3288
:1040100029F485010E5F1F4FF501D181C0E0C6CFA5
:1040200043E050E06CE671E0C5010E945A21892B03
:10403000E9F0F80110E000E020E030E0A9015F01C4
:10404000B0ED8B2E8D0E89E08815C8F19C2E6894FA
:1040500091F88C2F8870C2FF16C0811102C00F5FCB
:104060001F4F3196D501DC91C92DE9CFE114F10440
:1040700029F00E5F1F4FF7011183008360E070E0AD
:1040800080EC9FE7BCC0882311F001501109A5E026
:10409000B0E00E94B6229B01AC01220F331F441FE7
:1040A000551F280D311D411D511D283999E939072A
:1040B000490799E15907A8F2C6609C2ED2CFAEEF0E
:1040C0008A1206C0C3FD3CC09C2E689493F8C9CFE9
:1040D000DF7DD534A9F580818D3239F4C061DF01EF
:1040E0001296818162E070E006C0DF018B32C1F37D
:1040F000119661E070E080535D01A61AB70A8A301C
:10410000F8F4E0E8CE16ECE0DE065CF4B601660FEB
:10411000771F660F771FC60ED71ECC0CDD1CC80E8E
:10412000D11C5D01FFEFAF1ABF0A8C9180538A301A
:10413000A8F1C4FF03C0D194C194D1080C0D1D1D7A
:10414000C1FF09C0E114F10431F081E0A81AB108FF
:10415000D701AD92BC92CA01B9010E949421C370EB
:10416000C33009F490584B015C0120E030E0A90114
:104170000E948F21882309F440C0C3EAD1E017FFD1
:1041800005C0119501951109CBE8D1E06E01B8E1A8
:10419000CB1AD10880E2E82EF12C0FC0D501B1CFA7
:1041A000FE0125913591459154910E191F09C501C4
:1041B000B4010E94F5214B015C01D501C4010E152B
:1041C0001F0574F72497F594E794CC16DD06A9F73C
:1041D0008A2F880F8B2F881F8F3F49F020E030E017
:1041E000A901C501B4010E948F21811106C082E29C
:1041F00090E09093BD0C8093BC0CC501B401DF919D
:10420000CF911F910F91FF90EF90DF90CF90BF90D3
:10421000AF909F908F900895FC0188279927E8948C
:1042200021912032E9F3293010F02E30C8F32B32DF
:1042300041F02D3239F4689404C00E948721820F26
:10424000911D219120532A30C0F31EF49095819541
:104250009F4F08951F93FC0199278827BC01E8947C
:1042600011911032E9F3193010F01E30C8F31B32EF
:1042700051F01D3249F4689406C00E947221610F0A
:10428000711D811D911D119110531A30B0F33EF430
:1042900090958095709561957F4F8F4F9F4F1F919F
:1042A000089591110C946222803219F08950855042
:1042B000C8F70895FB01DC014150504088F08D9112
:1042C00081341CF08B350CF4805E659161341CF0F8
:1042D0006B350CF4605E861B611171F3990B0895C8
:1042E000881BFCCF592F482F372F262F660F771F9B
:1042F000881F991F660F771F881F991F620F731FF2
:10430000841F951F660F771F881F991F08957AE0F5
:10431000979F902D879F802D910D112408950E94C5
:10432000D12108F481E00895E89409C097FB3EF498
:1043300090958095709561957F4F8F4F9F4F9923F2
:10434000A9F0F92F96E9BB279395F6958795779570
:104350006795B795F111F8CFFAF4BB0F11F460FF30
:104360001BC06F5F7F4F8F4F9F4F16C0882311F088
:1043700096E911C0772321F09EE8872F762F05C09C
:10438000662371F096E8862F70E060E02AF09A9537
:10439000660F771F881FDAF7880F9695879597F92C
:1043A0000895990F0008550FAA0BE0E8FEEF1616C6
:1043B0001706E807F907C0F012161306E407F50719
:1043C00098F0621B730B840B950B39F40A2661F08D
:1043D000232B242B252B21F408950A2609F4A14030
:1043E000A6958FEF811D811D08950E9408220C94CF
:1043F0007C220E946E2238F00E94752220F09523C4
:1044000011F00C9465220C946B2211240C94B022B0
:104410000E948D2270F3959FC1F3950F50E0551FB8
:10442000629FF001729FBB27F00DB11D639FAA2709
:10443000F00DB11DAA1F649F6627B00DA11D661F58
:10444000829F2227B00DA11D621F739FB00DA11D79
:10445000621F839FA00D611D221F749F3327A00D33
:10446000611D231F849F600D211D822F762F6A2FCF
:1044700011249F5750409AF0F1F088234AF0EE0F34
:10448000FF1FBB1F661F771F881F91505040A9F761
:104490009E3F510580F00C9465220C94B0225F3F42
:1044A000E4F3983ED4F3869577956795B795F7959D
:1044B000E7959F5FC1F7FE2B880F911D9695879515
:1044C00097F9089599278827089597F99F6780E8B5
:1044D00070E060E008959FEF80EC089500240A9456
:1044E0001616170618060906089500240A941216CF
:1044F0001306140605060895092E0394000C11F402
:10450000882352F0BB0F40F4BF2B11F460FF04C0AE
:104510006F5F7F4F8F4F9F4F089557FD9058440F07
:10452000551F59F05F3F71F04795880F97FB991F12
:1045300061F09F3F79F087950895121613061406CF
:10454000551FF2CF4695F1DF08C01616170618065C
:10455000991FF1CF86957105610508940895E89437
:10456000BB2766277727CB0197F908950E94C122C0
:10457000A59F900DB49F900DA49F800D911D1124B7
:104580000895A29FB001B39FC001A39F700D811D2C
:104590001124911DB29F700D811D1124911D08954C
:1045A0000E94D7226894B1110C94B02208950E9401
:1045B000952288F09F5798F0B92F9927B751B0F0FE
:1045C000E1F0660F771F881F991F1AF0BA95C9F797
:1045D00014C0B13091F00E94AF22B1E008950C9464
:1045E000AF22672F782F8827B85F39F0B93FCCF317
:1045F000869577956795B395D9F73EF49095809514
:10460000709561957F4F8F4F9F4F08950E94D121E4
:1046100008F48FEF0895A1E21A2EAA1BBB1BFD011F
:104620000DC0AA1FBB1FEE1FFF1FA217B307E40791
:10463000F50720F0A21BB30BE40BF50B661F771FE9
:10464000881F991F1A9469F76095709580959095C9
:104650009B01AC01BD01CF010895052E97FB1EF40F
:1046600000940E94442357FD07D00E940B2307FCAF
:1046700003D04EF40C9444235095409530952195E9
:104680003F4F4F4F5F4F089590958095709561957E
:104690007F4F8F4F9F4F0895EE0FFF1F881F8BBFD7
:1046A0000790F691E02D19940F931F93CF93DF930A
:1046B0008230910510F482E090E0E091C00CF0911E
:1046C000C10C30E020E0B0E0A0E0309799F4211573
:1046D000310509F44AC0281B390B24303105D8F5BF
:1046E0008A819B816115710589F1FB019383828326
:1046F000FE0111C040815181028113814817590781
:10470000E0F04817590799F4109761F012960C934E
:10471000129713961C933296CF01DF91CF911F9180
:104720000F9108950093C00C1093C10CF4CF211584
:10473000310551F04217530738F0A901DB019A0106
:10474000BD01DF01F801C1CFEF01F9CF9093C10C9A
:104750008093C00CCDCFFE01E20FF31F81939193A4
:104760002250310939832883D7CF2091BE0C309154
:10477000BF0C232B41F420910402309105023093A9
:10478000BF0C2093BE0C2091020230910302211530
:10479000310541F42DB73EB7409106025091070212
:1047A000241B350BE091BE0CF091BF0CE217F30710
:1047B000A0F42E1B3F0B2817390778F0AC014E5F91
:1047C0005F4F2417350748F04E0F5F1F5093BF0C03
:1047D0004093BE0C819391939FCFF0E0E0E09CCF9B
:1047E000CF93DF930097E9F0FC0132971382128296
:1047F000A091C00CB091C10CED0130E020E0109709
:10480000A1F420813181820F931F2091BE0C309141
:10481000BF0C2817390709F061C0F093BF0CE09373
:10482000BE0CDF91CF910895EA01CE17DF07E8F5BE
:104830004A815B819E0141155105B1F7E901FB8376
:10484000EA8349915991C40FD51FEC17FD0761F414
:10485000808191810296840F951FE9019983888355
:10486000828193819B838A83F0E0E0E012968D91B0
:104870009C9113970097B9F52D913C911197CD011B
:104880000296820F931F2091BE0C3091BF0C281707
:10489000390739F6309751F51092C10C1092C00CBF
:1048A000B093BF0CA093BE0CBCCFD383C283408116
:1048B0005181840F951FC817D90761F44E5F5F4F70
:1048C00088819981480F591F518340838A819B8138
:1048D000938382832115310509F0B0CFF093C10C89
:1048E000E093C00C9ECFFD01DC01C0CF1382128289
:1048F000D7CF4F925F926F927F928F929F92AF929B
:10490000BF92CF92DF92EF92FF920F931F93CF93BC
:10491000DF938C01009799F4CB01DF91CF911F9128
:104920000F91FF90EF90DF90CF90BF90AF909F904E
:104930008F907F906F905F904F900C945423FC0168
:10494000E60FF71F9C0122503109E217F30708F424
:10495000AEC0D901CD91DC911197C617D70720F1D0
:10496000C530D10578F0CE0104978617970750F02F
:10497000C61BD70B2297C193D1936D937C93CF0124
:104980000E94F023C801DF91CF911F910F91FF90FA
:10499000EF90DF90CF90BF90AF909F908F907F90DF
:1049A0006F905F904F9008955B01AC1ABD0A4C0167
:1049B0008C0E9D1EA091C00CB091C10C512C412CAD
:1049C000F12CE12C109731F58091BE0C9091BF0C29
:1049D0008815990509F05CC04616570608F058C0BE
:1049E0008091020290910302009741F48DB79EB727
:1049F0004091060250910702841B950BE817F907B6
:104A000008F055C0F093BF0CE093BE0CF901718320
:104A10006083B8CF8D919C91119712966C901297EC
:104A200013967C901397A815B90559F56C0142E0CF
:104A3000C40ED11CCA14DB0420F1AC014A195B0975
:104A4000DA011296159780F0628273825183408357
:104A5000D9016D937C93E114F10471F0D7011396A1
:104A6000FC93EE9312978ECF22968C0F9D1FF90127
:104A700091838083F301EFCFF093C10CE093C00CDE
:104A800081CF4816590608F42C017D01D3019ACF35
:104A9000CB010E9454237C01009749F0AE01B8017C
:104AA0000E945A25C8010E94F02387016BCF10E0B5
:104AB00000E068CFFB01DC0102C001900D92415083
:104AC0005040D8F70895FB01DC018D9101908019C9
:104AD0000110D9F3990B0895FB01DC0101900D92AF
:104AE0000020E1F7089512E0C7E6D2E000E006C03A
:104AF000802FFE010E944C232196011DC836D1074C
:0A4B000080E00807A9F7F894FFCF42
:104B0A0008000000C20C80000000000096050005A5
:104B1A002D05E3055E053C055005535441525400EA
:104B2A0053544F5000444953434F4E4E454354004B
:104B3A00454E44000D0A00494E4954005343414E24
:104B4A0053544154450050494E4700434F4E46493D
:104B5A004700333630623831326566313064333378
:104B6A006535343537656537623431323834353333
:104B7A003666007B34636534393333662D38353411
:104B8A00372D343764302D613736392D3261313162
:0A4B9A0062333333393333317D00C9
:00000001FF
